:020000040800F2
:10000000584A0020090300089B3800087530000892
:1000100099380008C90A00082947000800000000B4
:10002000000000000000000000000000490200087D
:10003000C50B000800000000A50200089D3A00085A
:1000400023030008230300082303000823030008F8
:1000500023030008230300082303000823030008E8
:1000600023030008230300082303000823030008D8
:1000700023030008230300082303000823030008C8
:1000800023030008FD0A0008230300080000000005
:10009000000000000000000000000000C70B000886
:1000A00023030008713B0008230300082303000812
:1000B0007D3B0008230300082303000823030008F6
:1000C0002303000823030008230300082303000878
:1000D00023030008114700081D4700080000000026
:1000E0002303000823030008230300080000000086
:1000F00000000000000000000000000023030008D2
:100100000000000023030008230300082303000865
:1001100000000000000000000000000000000000DF
:10012000090B000823030008230300082303000829
:100130002303000800000000000000000000000091
:100140000000000000000000000000002303000881
:100150002303000823030008150B000823030008ED
:100160002303000823030008000000000000000033
:10017000000000000000000000000000000000007F
:100180000000000023030008000000000000000041
:10019000230300082303000800F002F800F044F8ED
:1001A0000AA090E8000C82448344AAF10107DA45D2
:1001B00001D100F039F8AFF2090EBAE80F0013F0E0
:1001C000010F18BFFB1A43F0010318478C610000B0
:1001D000AC610000103A24BF78C878C1FAD8520741
:1001E00024BF30C830C144BF04680C6070470000B1
:1001F0000023002400250026103A28BF78C1FBD830
:10020000520728BF30C148BF0B607047642900F017
:100210005181782900F08A81002070471FB506F0CF
:100220001BF81FBD10B510BD00F07FFB1146FFF796
:10023000F5FF04F023FB00F09DFB03B4FFF7F2FF92
:1002400003BC00F0A5FB00002C4B19680868B0E85F
:10025000F04F80F30988BFF36F8F4FF0000080F3F9
:10026000118870470000000008480068006880F3AB
:1002700008884FF0000080F3148862B661B6BFF3BF
:100280004F8FBFF36F8F00DF00BF00BF08ED00E0AE
:10029000DFF80C00016841F470010160704700BF95
:1002A00088ED00E0EFF30980BFF36F8F134B1A68FE
:1002B0001EF0100F08BF20ED108A20E9F04F1060EB
:1002C00009B44FF0500080F31188BFF34F8FBFF394
:1002D0006F8F05F0D9F84FF0000080F3118809BC4A
:1002E00019680868B0E8F04F1EF0100F08BFB0ECB6
:1002F000108A80F30988BFF36F8F70474C0000208D
:10030000EFF305807047000009488047094800471F
:10031000FEE7FEE7FEE7FEE7FEE7FEE7FEE7FEE7B5
:10032000FEE7FEE704480549054A064B7047000012
:10033000613B00089901000858440020584A0020F9
:10034000584600205846002053EA020C00F069800D
:100350002DE9F04B4FF00006002B1FBFB3FA83F5D9
:1003600003FA05F424FA05F65E4012BF1643B2FA0A
:1003700082F502FA05F4C5F120051EBF22FA05FC3C
:1003800044EA0C04203556EA044C4FEA144418BFE2
:10039000641C4FF000084FF00009904271EB030C11
:1003A00039D3002919BFB1FA81F701FA07F6B0FA7B
:1003B00080F700FA07F6C7F120071EBF20FA07FCF6
:1003C00046EA0C062037B6FBF4FCA7EB0507103F06
:1003D00007F01F0BCBF120060CFA0BFB2CFA06F6EC
:1003E00044BFB3460026202FA4BF5E464FF0000B4B
:1003F0005BEA060C08BF4FF0010B19EB0B09ABFBD6
:10040000027C48EB0608C01B06FB02CC0BFB03CCAE
:1004100071EB0C01C1E70B46024641464846BDE878
:10042000F08B13B54FF000004FF00001AFF30080E8
:10043000BDE81C40704700000FB41CB5084B06AA6D
:100440007B4469460090059800F057FA0446002066
:10045000694600F065FA20461CBC5DF814FB0000FC
:10046000DD04000070B5044685690068C10601D549
:10047000302600E02026C00707D070BDD4E9012156
:1004800030469047206A401C20626D1EF6D570BD34
:1004900070B5044685690078C00707D170BDD4E9FE
:1004A000012120209047206A401C20626D1EF6D555
:1004B00070BD00002DE9F041064600241068752942
:1004C000314616A510D0AFF30080002802DA404272
:1004D00013A507E031688A0701D512A502E0490794
:1004E00004D511A5012401E0AFF3008000210A2208
:1004F00006F1240709E0B0FBF2FCB0FBF2F302FBCB
:100500001C00303078541846491C0028F3D123468B
:100510002A463046BDE8F04100F090B900000000E6
:100520002D0000002B0000002000000070B50446E4
:100530000D4621461068AFF300802188090502D5D9
:100540000F4A7A4402E00E4A7A440E32002104F146
:10055000240305E000F00F060009965D5E54491C77
:100560000028F7D120780023000704D5702D02D091
:1005700009B1022311322046BDE8704000F05EB997
:10058000CA5D00002DE9F05F894604464FF0000A7D
:10059000DFF824B1FB44C0F820A02046E16888477A
:1005A00000287DD0252806D0D4E901219047206A73
:1005B000401C2062F1E700255F462046E16888473D
:1005C0002028064607DB312E05D2B81910F8200C7A
:1005D00008B10543F1E7A80701D525F00405C4F8E3
:1005E0001CA00027C4F818A02A2E09D0304604F019
:1005F000ACF838B304EB8708303EC8F8186019E04F
:1006000059F8041B204604EB87029161E168884792
:10061000012F064618D1E069002820DA25F02005D0
:100620001DE0D8F8180000EB800006EB40003038E1
:10063000C8F818002046E1688847064604F085F8A7
:100640000028EED1012F0AD02E2E08D12046E168D5
:1006500088477F1C0646022F45F02005C4DBA069B1
:10066000002803DA404245F00105A061E80701D007
:1006700025F01005A6B1A6F14100192802D82036B0
:1006800045F400654A463146204625604D46FFF751
:10069000BDFD60B1012807D0ED1D25F0070000E089
:1006A00007E000F1080978E705F1040975E730462D
:1006B0007AE7206ABDE8F09FA05D000010B5431CFA
:1006C00002E010F8011B71B18107FAD14FF001323D
:1006D00002C88C1A8C4314EAC211F9D0C01A0A0657
:1006E00003D0C01E10BDC01A10BD0A0401D0801E68
:1006F00010BD0902FCD0401E10BD032A40F230801C
:1007000010F0030C00F0158011F8013BBCF1020F52
:10071000624498BF11F801CB00F8013B38BF11F8D3
:10072000013BA2F1040298BF00F801CB38BF00F8EA
:10073000013B11F0030300F02580083AC0F0088067
:1007400051F8043B083A51F804CBA0E80810F5E74B
:10075000121D5CBF51F8043B40F8043BAFF300802E
:10076000D20724BF11F8013B11F801CB48BF11F8A3
:10077000012B24BF00F8013B00F801CB48BF00F873
:10078000012B704710B5203AC0F00B80B1E818502B
:10079000203AA0E81850B1E81850A0E81850BFF46B
:1007A000F5AF5FEA027C24BFB1E81850A0E818500A
:1007B00044BF18C918C0BDE810405FEA827C24BF5E
:1007C00051F8043B40F8043B08BF7047D20728BFEC
:1007D00031F8023B48BF11F8012B28BF20F8023B3B
:1007E00048BF00F8012B70474FF0000200B51346D8
:1007F00094469646203922BFA0E80C50A0E80C5041
:10080000B1F12001BFF4F7AF090728BFA0E80C50F1
:1008100048BF0CC05DF804EB890028BF40F8042BEA
:1008200008BF704748BF20F8022B11F0804F18BF57
:1008300000F8012B70477047704770472DE9F0476B
:100840000D4699469246044600F124080168880640
:1008500004D5E06921F01001216000E00120A842E8
:1008600001DD471B00E00027A1697A1902EB0900AE
:10087000081AA0612078C00602D42046FFF7F2FDD6
:10088000002608E0D4E901211AF806009047206A02
:10089000401C761C20624E45F4DB2078C0060AD549
:1008A0002046FFF7DFFD06E0D4E901213020904724
:1008B000206A401C2062381EA7F10107F4DC07E023
:1008C000D4E9012118F805009047206A401C2062F5
:1008D000281EA5F10105F3DC2046FFF7D9FD20789D
:1008E000000602D50220BDE8F0870120FBE70000EA
:1008F00001694A1C02610878704700B58FB0CDE9E4
:1009000001310021059105497944CDE903101146D3
:100910006846FFF737FE0FB000BD0000E5FFFFFFA0
:100920000A6802F8010B0A607047754600F02CF85F
:10093000AE4605006946534620F00700854618B0CC
:1009400020B5FFF7EFFCBDE820404FF000064FF068
:1009500000074FF000084FF0000B21F00701AC46F4
:10096000ACE8C009ACE8C009ACE8C009ACE8C00913
:100970008D46704710B50446AFF300802046BDE8B1
:100980001040FFF75ABC000000487047F4430020B5
:1009900001491820ABBEFEE72600020070470000A8
:1009A000464910B54A6822F440324A604A684368B2
:1009B0001A434A6001684A6822F480724A600168FA
:1009C0004A68036942EA03224A6001684A6822F0E1
:1009D00040724A6001684A6883681A434A60016845
:1009E0008A6822F400628A6001688A68C3681A43D0
:1009F0008A60816A6FF07062D14201688A6822F071
:100A000070628A6001688A680CD0836A1A438A60BF
:100A100001688A6822F040528A6001688A68C36A65
:100A20001A4301E022F040528A6001688A6822F08D
:100A300002028A6001688A68037E42EA43028A6091
:100A400090F82010002901684A680FD042F4006233
:100A50004A6001684A6822F460424A6001684A6854
:100A6000174C436A04EB43331A4301E022F400625B
:100A70004A600168CA6A22F47002CA620168CA6ADE
:100A8000838B104C04EB03531A43CA6201688A68D3
:100A900022F400728A6001688A6890F8303042EA75
:100AA00043228A6001688A6822F480628A60016851
:100AB0008A68406942EA8020886010BD00230140B6
:100AC00000E0FFFF0000F0FFFEE770B504464FF6C0
:100AD000FF7000224AF201050DE0A35C584000239C
:100AE000C60702D085EA500000E040085B1C082BD6
:100AF000F6DB521C92B28A42EFD370BD014800F07F
:100B0000EDB9000008040020014800F0E7B900003A
:100B100048030020014800F0E1B90000A8030020CC
:100B200001681823CAB2103AB2FBF3F2054B6FF317
:100B30000901032A9B5CC36500D9091D816508462C
:100B4000704700009C62000810B5014600208B69C8
:100B50008A6A4FF0C07453B1B3F5005F15D072B11B
:100B6000012A0CD0022A0AD0032A09D104E01AB1C2
:100B7000012A06D0022A03D1C96AC90100D5012081
:100B800010BDC96AA142FAD010BD002AF7D0012ACF
:100B9000F2D0022AF3D0032AF3D010BD30B5046896
:100BA000256825F480252560046863608368402BF0
:100BB000036803D099600068C26030BD9A60006825
:100BC000C16030BD70474FF4807000F015BB72B645
:100BD000FEE7000078B50024009490F83C20012A3C
:100BE00019D0012280F83C200A6807230568092AE9
:100BF00013D9EE680A3A02EB420293409E43EE603C
:100C00000B788A680A3B03EB43039A400368DD686C
:100C10002A43DA6010E0022078BD2E6902EB42021E
:100C200093409E432E610B788A6803EB43039A40FE
:100C300003681D692A431A614A681F23072A13D2D1
:100C400005686E6B521E02EB820293409E436E63F8
:100C50000A8893B20A79521E02EB8202934002681C
:100C6000556B2B43536327E005680D2A12D22E6B78
:100C7000D21F02EB820293409E432E630B790A88B7
:100C8000DB1F92B203EB83039A4003681D6B2A4378
:100C90001A6311E0EE6A0D3A02EB820293409E4322
:100CA000EE620B790A880D3B92B203EB83039A4004
:100CB0000368DD6A2A43DA621B4B0568194A9D42C4
:100CC0000AD10D68122D07D1556825F4000555602D
:100CD000556845F48005556005689D421DD1134D4A
:100CE0000B68AB4201D0112B17D1536823F480035A
:100CF0005360536843F4000353600968A9420CD160
:100D00000B490C4A0968B1FBF2F101EB8101490082
:100D100000E0491E00910029FBD180F83C400020F2
:100D200078BD0000002301400020014012000010A7
:100D30004800002040420F0070B504004FF000054D
:100D400003D0206C002610B107E0012070BD2046C2
:100D500000F01CF8666484F83C60206CC00610D477
:100D6000206C20F4885040F0020020642046FFF7F9
:100D700017FE6664206C20F0020040F00100206441
:100D800000E0012584F83C60284670BD70B586B04F
:100D9000064614216846FFF727FD1D493068884242
:100DA00033D11C480025016841F48071016000685E
:100DB00000F48070059017481438016841F0010173
:100DC00001600068694600F0010005900320009072
:100DD000CDE90105104800F01BFA114C0F48C4E999
:100DE00000050015A560C4E9035040006061800063
:100DF000A0614011C4E907052046656200F03EF994
:100E000008B1FFF7E4FEB463A66306B070BD00004E
:100E100000200140443802400000024010640240BB
:100E2000480300202DE9F0410446876D00F0EEFAFA
:100E3000064694F835000025022806D0802060651B
:100E400084F834500120BDE8F0812068016821F069
:100E5000160101602068416921F080014161206C28
:100E600008B9A06C20B12068016821F00801016078
:100E70002068016821F0010101600CE000F0C6FA71
:100E8000801B052807D920206065032084F83500E1
:100E900084F83450D7E720680068C007EED194F892
:100EA0005C103F208840B860012084F8350084F849
:100EB00034500020C7E790F83510022903D0802174
:100EC000416501207047052180F8351000680168F0
:100ED00021F0010101600020704700002DE9F84376
:100EE00004464FF00009CDF8009063484FF41651C6
:100EF000A56D0068B0FBF1F72E6894F85C1008202F
:100F000000FA01F131420FD021680A6852070BD56F
:100F10000A6822F004020A6094F85C108840A86015
:100F2000606D40F00100606594F85C104FF00108BE
:100F300008FA01F0304208D021684969090604D551
:100F4000A860606D40F00200606594F85C100420B9
:100F50008840304208D021680968890704D5A86014
:100F6000606D40F00400606594F85C1010208840CB
:100F7000304218D021680968090714D5A860206894
:100F80000168490304D50068000308D5A16C07E097
:100F90000168C90503D4016821F008010160216CD2
:100FA00009B12046884794F85C10202088403042E0
:100FB00031D021680968C9062DD5A86094F835009C
:100FC00005282068016806D0490347D5006800035A
:100FD0001DD4616C1CE021F016010160206841699C
:100FE00021F080014161206C08B9A06C20B120681B
:100FF000016821F00801016094F85C103F208840EE
:10100000A86084F8358084F83490216D1FE0E16B8E
:1010100009B120468847606D00282BD0606DC0075D
:1010200014D0052084F835002068016821F0010102
:1010300001600098401C0090B84203D82068006806
:10104000C007F6D184F8358084F83490E16C00292B
:1010500010D001B02046BDE8F04308470168C9053B
:10106000D5D4016821F01001016084F8358084F83E
:101070003490CCE7BDE8F883480000202DE9F0412A
:10108000044600F0C3F906465CB1022084F835003E
:10109000002584F834502068016821F001010160C6
:1010A0000DE00120BDE8F08100F0B0F9801B0528BB
:1010B00005D920206065032084F83500F2E7206818
:1010C0000068C007F0D12268116820480140D4E9C7
:1010D00001031843D4E903363343184363691843C3
:1010E000A3691843E3691843236A18430843616AF4
:1010F000042903D1D4E90B13194308431060206875
:101100004069666A20F0070130460E430127042833
:101110000CD1A06A0643E06A40B12046FFF714FDF7
:1011200020B14020606584F83570BAE720684661D8
:101130002046FFF7F5FC94F85C203F219140816048
:10114000656584F835700020ACE700003F8010F042
:101150002DE9F0410446866D90F834000025012801
:101160000DD0012084F8340094F835700020012F50
:1011700007D084F8340002252846BDE8F08102201B
:10118000FBE7022784F8357060652046FFF706FD0F
:1011900094F85C103F208840B0602068016841F0FE
:1011A00016010160206C20B12068016841F008013F
:1011B00001602068016841F001010160DCE7000086
:1011C00070B5044600F022F90546601C02D00448C0
:1011D0000078044400F01AF9401BA042FAD370BD15
:1011E0003C000020B0F5807F02D102490120087048
:1011F0007047000020000020044910B50A68024230
:1012000002D00860FFF7EEFF10BD0000143C014063
:101210002DE9F84FDFF8B8A10022012403254FF093
:101220000F090AF1040BAAF1040E00BF0B6804FABF
:1012300002F63340B34273D10F7907F00307012F51
:1012400001D0022F16D187684FEA420805FA08FC40
:1012500027EA0C07D1F80CC00CFA08FC4CEA070C82
:10126000C0F808C04768B7430E79C6F30016964029
:101270003E4346600E79F643B6070DD0C768560068
:1012800005FA06FC27EA0C07D1F808C00CFA06FCA0
:101290004CEA070CC0F80CC00E7906F00306022ECB
:1012A00010D1D60800EB8608D8F8206057074FEA1F
:1012B000D76C09FA0CF7BE430F6907FA0CF73743EE
:1012C000C8F8207006684FEA420C05FA0CF7BE43D6
:1012D0000F7907F0030707FA0CF7374307604E68EA
:1012E00016F4403F6DD03B4E376847F48047376077
:1012F000366822F0030706F480460096364E07EB68
:10130000060CDCF8086897073F0F09FA07F826EA89
:101310000806DFF8C880404503D14FF000081EE002
:101320004FE0DFF8BC80404502D14FF0010816E0E5
:10133000DFF8B080404502D14FF002080FE0DFF83F
:10134000A880404502D14FF0030808E0DFF89C80F8
:10135000404502D14FF0040801E04FF0070808FAB9
:1013600007F848EA0608CCF80888DAF8006057461B
:10137000D1F804C09E435FEACC2C00D51E433E60EA
:10138000DBF800605F46D1F804C09E435FEA8C2C16
:1013900000D51E433E60DEF800607746D1F804C0F9
:1013A0009E435FEA8C3C00D51E433E60084F083FD9
:1013B0003E68D1F804C09E435FEACC3C00D51E4392
:1013C0003E60521C102AFFF431AFBDE8F88F0000D8
:1013D000083C014044380240003001400000024017
:1013E0000004024000080240000C024000100240CD
:1013F000426921EA02030A4043EA024181617047DF
:101400000AB1816170470904FBE700000148806868
:10141000704700003C00002070B5040025D094F80F
:101420003D00002520B984F83C50204600F0B8F873
:10143000242084F83D002068016821F0010101604A
:101440002068016841F4004101602068016821F4CE
:101450000041016000F006FB4D4A6168914201D8ED
:101460004C4900E04C49884201D2012070BD4B49F3
:101470002368B0FBF1F15E6826F03F060E435E6024
:101480006368934206D94FF4967359434FF47A73C5
:10149000B1FBF3F12368491C1E6A26F03F06314375
:1014A00019626168914210D84900401EB0FBF1F208
:1014B000521CC2F30B02042A01D2042022E0B0FB2A
:1014C000F1F0401CC0F30B001CE0A268F2B301EB8A
:1014D000C10303EB0116431EB3FBF6F35B1C43F49D
:1014E00080431B0549D092B301EBC10202EB01110D
:1014F000401EB0FBF1F0401CC0F30B0040F48040F4
:1015000040F400402168CA694CF6FF739A431043C7
:10151000C861D4E9071001432068026822F0C002C4
:1015200011430160D4E9030101432068826848F255
:10153000FF339A4311438160D4E9050108432168D0
:10154000CA6822F0FF021043C86001E00EE016E016
:101550002068016841F0010101602564202084F8C1
:101560003D00256384F83E50002070BD01EB41062C
:10157000431EB3FBF6F35B1CB3E70120C2E701EBAC
:101580004101401EB0FBF1F0401CC0F30B00B7E777
:10159000A086010080841E0000093D0040420F002B
:1015A00010B586B0044614216846FFF71DF91349AB
:1015B0002068884220D112480021026842F00202CD
:1015C0000260006800F002000590C0200090122028
:1015D000CDE90101032003900420049069460948E5
:1015E000FFF716FE06481030016841F40011016053
:1015F000006800F40010059006B010BD00540040D3
:1016000030380240000402400248816802781144E8
:10161000816070473C0000200B4810B5016841F420
:1016200000710160016841F480610160016841F46A
:1016300080710160032000F09FF80F2000F006F891
:1016400000F050F8002010BD003C024030B50546C7
:10165000204887B00024016841F001010160006862
:1016600006A900F00100009001A800F0DBF9049841
:10167000B0B100F0F7F9400017494FF08042B0FBDD
:10168000F1F11648491E026040F2E732C0E9032436
:10169000C0E90114846101F03FF8040003D015E0B3
:1016A00000F0E0F9E8E70D4801F082F804000DD100
:1016B0001C2000F033F8102D07D2002229461C20F0
:1016C00000F03AF80648056000E0012407B0204623
:1016D00030BD00004038024040420F00BC060020F0
:1016E000400000200C4882B0016841F48041016054
:1016F000006800F4804000900748001F016841F036
:10170000805101600068002200F0805000900F219D
:10171000901E02B000F010B844380240002809DBE7
:1017200000F01F02012191404009800000F1E020FB
:10173000C0F8001170470000F0B40E4B1B680C4657
:10174000C3F30223C3F10705042D00D90425191D95
:10175000072901D2002300E0DB1E012606FA05F16D
:10176000491E214099409E40761E16403143F0BCF0
:1017700002F0DBBF0CED00E0064900F0070208684C
:101780004FF6FF03184040EA0220034A1043086066
:10179000704700000CED00E00000FA052DE9F84369
:1017A000044600684FF00109C1074FF0000601D15F
:1017B000400729D5DFF82081C8F86860FFF726FECA
:1017C0000746464D05E000BFFFF720FEC01B02287C
:1017D00059D828680001F7D4A068217B800140EA2D
:1017E0000170616808433D4984310860C8F8689019
:1017F000FFF70CFE074604E0FFF708FEC01B0228B7
:1018000041D828680001F7D52078800752D53348A1
:101810004030016841F0805101600068304D00F0B7
:1018200080500090286840F480702860FFF7EEFD3B
:10183000074604E0FFF7EAFDC01B022823D828680A
:10184000C005F7D5254D7035286810F4407020D0BC
:10185000218A01F4407181421BD02868214920F47B
:101860004070C1F800900E6028602868C00710D052
:10187000FFF7CCFD064641F2883707E0FFF7C6FDCB
:10188000801BB84202D90320BDE8F883286880078E
:10189000F4D521691148C1F301220830032A12D07E
:1018A000016821F4F81101602868218AC1F30B0155
:1018B000084328602078000703D50B49207DC1F834
:1018C000E0010020E0E70268084B22F4F81219401A
:1018D0000A430260E8E70000000047420038024087
:1018E00000700040400E474200104742FFFCFF0FCF
:1018F0002DE9F0470E46050065D0DFF81481D8F8D1
:101900000000F7B200F00700B04207D288F800707C
:10191000D8F8000000F00700B04254D128683D4CD0
:10192000810712D5400703D5206840F4E0502060BD
:101930002878000703D5206840F4604020602068C4
:10194000A96820F0F000084320602878C0072DD057
:10195000304968680839012812D0022813D00328BA
:1019600011D00968890700292DDA216821F00301C7
:1019700001432160FFF74AFD814641F2883A0EE0BB
:1019800009688903EFE709688901ECE7FFF73EFD85
:10199000A0EB0901514502D90320BDE8F08720687A
:1019A000696800F00C00B0EB810FEFD1D8F800109F
:1019B000404601F00701B14207D90770006800F006
:1019C0000700B04201D00120E7E72878400705D59D
:1019D0002068E96820F4E050084320602878000778
:1019E00006D52068296920F4604040EAC1002060E3
:1019F00000F058F82168084AC1F30311515CC8404F
:101A00000649086006480068FFF720FE0020C4E78A
:101A1000003C024008380240A46200084800002050
:101A2000400000200F2202600C4A136803F00303F9
:101A30004360136803F0F0038360136803F4E0531A
:101A4000C36012684FF4E05303EAD2020261044813
:101A5000006800F007000860704700000838024086
:101A6000003C02400448054900680968044AC1F383
:101A70008221515CC840704748000020083802406D
:101A8000B46200080448054900680968044AC1F3C3
:101A90004231515CC840704748000020083802407D
:101AA000B4620008154810B5006810F00C02144824
:101AB00013D01449042A0FD0082A0ED10F4C241F2A
:101AC0002268236802F03F025B0207D52068C0F35A
:101AD0008810A0FB010106E0084610BD2168C1F393
:101AE0008811A1FB00010023FEF72EFC2168C1F341
:101AF0000141491C4900B0FBF1F010BD083802401B
:101B00000024F40040787D012DE9F84F04006ED0E8
:101B10002078DFF84C93C007A9F104054AD009F1F9
:101B200004000168C1F38101012908D00068C0F3F5
:101B3000810002280AD1D9F80000400206D52868A1
:101B4000800337D560680028E1D033E06068B0F5E5
:101B5000803F10D0B0F5A02F286810D020F480303E
:101B60002860286820F4802028606068A8B1FFF70A
:101B70004DFC06460DE0286840F48030F4E740F460
:101B800080202860F7E700BFFFF740FC801B642837
:101B900073D828688003F7D50CE0FFF737FC0646BA
:101BA00005E000BFFFF732FC801B6428F0D82868EE
:101BB0008003F7D42078DFF8AC8280074FF0000A6A
:101BC0003ED5A748001D016811F00C0F08D0006831
:101BD000C0F3810002280BD1D9F80000400207D4DD
:101BE0002868800716D5E068012800D112E033E1AB
:101BF000E068B8B10120C8F80000FFF707FC06460E
:101C000005E000BFFFF702FC801B0228C0D828684F
:101C10008007F7D52868216920F0F80040EAC10064
:101C200028600DE0C8F800A0FFF7F0FB064604E0CE
:101C3000FFF7ECFB801B02281FD828688007F7D429
:101C40002078000722D5864F87486169703771B1C7
:101C500001210160FFF7DAFB064604E0FFF7D6FB3F
:101C6000801B022809D838688007F7D50EE0C0F835
:101C700000A0FFF7CBFB064605E082E0FFF7C6FBBE
:101C8000801B02287DD838688007F7D42078400769
:101C900068D5DFF8CCB100270BF13C0BDBF8000076
:101CA000C0000BD4DBF8001041F08051CBF80010DD
:101CB000DBF80000012700F0805000906B4E306888
:101CC000C00510D4306840F480703060FFF79EFB90
:101CD000009005E0FFF79AFB0099401A022850D8BF
:101CE0003068C005F6D55E4EA0686C3601280FD06E
:101CF0000528306810D020F001003060306820F0F6
:101D000004003060A068B8B1FFF780FB00900FE0DE
:101D1000306840F00100F4E740F004003060F7E77D
:101D2000FFF774FB0099411A41F28830814266D86E
:101D300030688007F4D50EE0FFF768FB009007E0FD
:101D4000FFF764FB0099411A41F28830814256D86E
:101D500030688007F4D42FB1DBF8001021F08051F7
:101D6000CBF80010A069C8B33D49091D0968C1F34B
:101D7000810102294AD00228504607D0C8F86000E5
:101D800000E03CE0FFF742FB04463BE04746C8F872
:101D90006000FFF73BFB064605E000BFFFF736FBA0
:101DA000801B02282BD828688001F7D4D4E90701CA
:101DB0000843A16A2E4A490802EB0141626A41EADE
:101DC0008211084394F82C1040EA0161C9F8001010
:101DD00001203866FFF71AFB044606E03EE000BF2C
:101DE000FFF714FB001B022809D828688001F7D5EB
:101DF00034E000BFFFF70AFB001B022802D90320D2
:101E0000BDE8F88F28688001F4D427E00128F7D0D6
:101E1000D9F80000E26900F4800191421CD1226AE5
:101E200000F03F01914217D147F6C071626A01404C
:101E3000B1EB821F10D1A26A4FF0FF3300F44031A2
:101E400003EB5202B1EB024F06D194F82C1000F0D4
:101E50007060B0EB016F01D00120D1E70020CFE727
:101E60000438024000004742800E474200700040A4
:101E70000000FFFF10B5040002D0607F10B106E043
:101E8000012010BD00202077204600F039F8022004
:101E900060772168CA204862216853204862204642
:101EA00001F008FD30BB20688168144A1140816050
:101EB0002168886862681043D4E904231A431043F8
:101EC00088602168E068086120680169228941EA28
:101ED00002410161204601F011FD58B921680A6CE8
:101EE00022F480220A6421680A6CA3691A430A64F6
:101EF000012161772268FF21516210BDBFFF8FFF72
:101F000010B586B0044618216846FEF76DFC0949F5
:101F1000206888420CD1022000900002049068469C
:101F2000FFF73CFC08B1FEF752FE034901200860B0
:101F300006B010BD002800403C0E474270B5044674
:101F4000007F0B46012819D00126267702206077F2
:101F5000B2B19878D97840EA0145587819780002EA
:101F600040EA413005432168CA2048622168532075
:101F70004862204601F09EFCD0B122E0022070BDF4
:101F80005878C10603D500F0EF000A305870D878B1
:101F900001F084FC0204587801F080FC42EA00223F
:101FA000987801F07BFC0243187842EA4035DAE782
:101FB0000748054020684560204601F09FFC00B9B5
:101FC00066772268FF2151620021217770BD0000F1
:101FD0003FFFFF002DE9F0410446007F0D46012838
:101FE00023D04FF0010884F81C800220607720681D
:101FF000002780684FEA4060D2B1002800DBEF7014
:10200000A878297840EA01466878E978000240EA31
:10201000815006432168CA204862216853204862E3
:10202000204601F047FCB8B12CE00220BDE8F08169
:10203000002800DBEF70287801F030FC020468789B
:1020400001F02CFC42EA0022A87801F027FC0243B0
:10205000E87842EA8056DDE70D48064020680660D1
:102060002068816821F480218160D5E9030108435B
:1020700021688A6810438860204601F03FFC08B957
:1020800084F81D802268FF2151622777CEE7000087
:102090007F7F7F0070B504460068C16821F0A00111
:1020A000C160FFF7B3F905464FF47A7607E000BF49
:1020B000FFF7ACF9401BB04201D9032070BD206886
:1020C000C0688006F4D5002070BD90F851007047BC
:1020D00070B5040009D0606A002540B125616561D2
:1020E000A56294F8510040B10CE0012070BD606819
:1020F000B0F5827FF4D0E561F2E784F850502046D5
:1021000000F044F8022084F851002068016821F0B2
:1021100040010160A088218900F4827001F404412B
:102120000843A18901F400610843217C01F0020108
:102130000843217D01F001010843218B01F4007166
:102140000843217F01F03801084394F8201001F082
:1021500080010843218D01F4005108432168086083
:10216000A069042101EA104094F8241001F0100144
:102170000843216848602068C16921F40061C16199
:102180006565012084F85100002070BD10B586B04F
:10219000044614216846FEF727FB1349206888424D
:1021A00020D112480021026842F480520260006887
:1021B00000F4805005900D481438026842F0010286
:1021C0000260006800F001000590E020009002200D
:1021D000CDE90101032003900520049069460448DD
:1021E000FFF716F806B010BD003001404438024039
:1021F000000002402DE9F84F04464068002598464B
:1022000016460F464FF0040BB0F5827F01D1A0684F
:1022100088B194F85000012818D0012084F85000AB
:10222000FFF7F4F8814694F851004FF0000A0128B6
:102230000ED0022582E084F851B013460A462046AB
:10224000CDF8008000F036F9BDE8F88F0220FBE7FA
:10225000002F72D0002E70D084F851B0C4F854A072
:10226000A763A687E687C4F830A0A4F834A0A4F832
:1022700036A0C4F840A0C4F844A0A068B0F5004F50
:1022800009D12068016821F04001016020680168DF
:1022900021F48041016020680168490603D4016887
:1022A00041F040010160E068D8B139E02068816800
:1022B000C90709D0007BA16B0870A06B401CA0630C
:1022C000E08F401EE0870CE0FFF7A0F8A0EB0901CB
:1022D000414503D3B8F1FF3F03D036E0B8F1000F1A
:1022E00033D0E08F0028E1D11DE020688168C90764
:1022F00009D0C068A16B0880A06B801CA063E08F30
:10230000401EE0870CE0FFF781F8A0EB0901414592
:1023100003D3B8F1FF3F03D017E0B8F1000F14D09A
:10232000E08F0028E1D14A464146204601F0FBFA01
:1023300008B120206065606D00B10125012084F89E
:10234000510084F850A028467EE70325F6E72DE9E2
:10235000F84F044690F8500000271D46164689465F
:1023600001280DD04FF0010B84F850B0FFF74EF864
:10237000804694F85100BA46012804D0022793E021
:102380000220BDE8F88FB9F1000F73D0002E71D094
:10239000032084F85100C4F854A0C4F83090A686F5
:1023A000E686C4F838A0A4F83CA0A4F83EA0C4F87F
:1023B00044A0C4F840A0A068B0F5004F09D120683F
:1023C000016821F0400101602068016841F480410A
:1023D000016020680168490603D4016841F04001AA
:1023E0000160E068B0F5006F606803D030B3012E83
:1023F00024D041E008B1012E1CD1206B2168008857
:10240000C86006E020688168890709D5216B0988C2
:10241000C160206B801C2063E08E401EE08609E0D6
:10242000FEF7F4FFA0EB0800A84202D3681C01D01D
:1024300031E07DB3E08E0028E4D120E0206B2168FC
:102440000078087306E020688168890709D5216B48
:1024500009780173206B401C2063E08E401EE086EB
:102460000AE0FEF7D3FFA0EB0800A84203D3681CE4
:1024700002D010E017E06DB1E08E0028E3D14246B3
:102480002946204601F07EFA08B120206065A06848
:1024900018B106E0FFE7032706E02068C1688068FE
:1024A0000090606D00B1012784F851B084F850A00D
:1024B000384666E72DE9F84F044690F850000027AB
:1024C0000A9E1D4692468B464FF0010901280ED008
:1024D000012084F85000FEF799FF804694F85100DF
:1024E000616801280CD0B1F5827F07D102E002209B
:1024F000BDE8F88FA16809B9042801D00227C2E01D
:10250000BBF1000F27D0BAF1000F24D01DB394F80F
:102510005100042802D0052084F851000020606595
:10252000C4F838A0E587A587C4F830B0E586A5864D
:102530002064606420680168490603D4016841F0A2
:1025400040010160E068B0F5006F606805D0E8B355
:10255000012D46D07FE0012795E008B1012D39D14A
:10256000206B21680088C860206B801C2063E08E8F
:10257000401EE0862EE02068816889070FD5E18E35
:1025800069B1B9F1010F0AD1216B0988C160206BD3
:10259000801C2063E08E401EE0864FF0000920681A
:1025A0008168C9070CD0E18F51B1C068A16B088068
:1025B000A06B801CA063E08F401EE0874FF00109F4
:1025C000FEF724FFA0EB0800B04200E009E001D3D1
:1025D000701C50D1E08E0028CDD1E08F0028CAD1E8
:1025E0003FE0206B216800780873206B401C20635B
:1025F000E08E401EE0862EE02068816889070FD5B6
:10260000E18E69B1B9F1010F0AD1216B097801732B
:10261000206B401C2063E08E401EE0864FF00009D6
:1026200020688168C9070CD0E18F51B1C068A16BE7
:102630000870A06B401CA063E08F401EE0874FF045
:102640000109FEF7E3FEA0EB0800B04202D3701CC4
:1026500001D010E07EB1E08E0028CDD1E08F0028BF
:10266000CAD142463146204601F08CF928B10127F3
:102670002020606507E0032705E0A06818B92068FE
:10268000C16880680090012084F85100002084F81F
:10269000500038462CE770477047000070B590F83E
:1026A0003C20012A2CD0012480F83C40022280F8F2
:1026B0003D2003685A689D6822F070060A6832431C
:1026C0005A60104B02689A420ED0B2F1804F0BD084
:1026D0000D4B9A4208D00D4B9A4205D00C4B9A42B2
:1026E00002D00C4B9A4204D1496825F0800319436B
:1026F000916080F83D40002180F83C10084670BD94
:10270000022070BD000001400004004000080040AD
:10271000000C00400040014010B5040003D094F8C4
:102720003D0010B107E0012010BD002084F83C00FE
:10273000204600F01FF8022084F83D00211D20688B
:1027400001F022FA012084F8460084F83E0084F863
:102750003F0084F8400084F8410084F8420084F887
:10276000430084F8440084F8450084F83D000020CC
:1027700010BD000008B500680B49884212D10B4813
:10278000016841F0010101600068002200F00100D1
:10279000009005211920FEF7CFFFBDE80840192061
:1027A000FEF7BCBF08BD00000000014044380240F5
:1027B00090F83D10012901D001207047022180F8D6
:1027C0003D100168CA6842F00102CA6000680E4903
:1027D00088420ED0B0F1804F0BD00C49884208D00F
:1027E0000B49884205D00B49884202D00A498842E9
:1027F00004D1816801F00701062903D0016841F086
:102800000101016000207047000001400004004009
:1028100000080040000C00400040014070B5044634
:1028200090F83C000025012817D0012684F83C6070
:10283000022084F83D002068826822F0770222F4AA
:102840007F4282600868502838D00DDC20284FD0A5
:1028500005DC90B3102811D14AE0022070BD302869
:1028600046D040280AD13BE060282FD070280DD0F8
:10287000B0F5805F03D0B0F5005F12D0012584F879
:102880003D60002084F83C00284670BDCB68D1E94B
:102890000121206801F0C4F92068816841F07701C6
:1028A00009E0CB68D1E90121206801F0B9F920687D
:1028B000816841F480418160E1E719E0CA684968B4
:1028C000206801F0BFF95021206806E0CA68496815
:1028D000206801F0C8F96021206801F0ABF9CEE76B
:1028E000CA684968206801F0ADF940212068F4E722
:1028F000226801461046F0E7704770B5044600684C
:1029000001694FF00005C943890715D4C168C9435F
:10291000890711D4E91E01610120207720688069B0
:102920008007204602D0FFF7E7FF04E000F098F8A8
:10293000204600F096F8257720680169C9434907C9
:1029400017D4C168C943490713D46FF0040101616A
:10295000022020772068806910F4407F204602D052
:10296000FFF7CAFF04E000F07BF8204600F079F89A
:10297000257720680169C943090716D4C168C9438E
:10298000090712D46FF00801016104202077206844
:10299000C0698007204602D0FFF7AEFF04E000F0D8
:1029A0005FF8204600F05DF8257720680169C9438B
:1029B000C90617D4C168C943C90613D46FF0100102
:1029C0000161082020772068C06910F4407F20460C
:1029D00002D0FFF791FF04E000F042F8204600F03B
:1029E00040F8257720680169C943C90708D1C16843
:1029F000C943C90704D1891E0161204600F032F89D
:102A000020680169C943090609D4C168C943090698
:102A100005D46FF0800101612046FFF73CFE20687D
:102A20000169C943490609D4C168C943490605D4A7
:102A30006FF040010161204600F01BF82068016939
:102A4000C94389060BD4C168C943890607D46FF00E
:102A5000200101612046BDE87040FFF71DBE70BD3A
:102A6000704770470068B0F1804F01D1FEF7CCBDD0
:102A70007047704770477047F8B5016804460868AA
:102A8000CA684B6910F00F0F4FF0000559D003F0E2
:102A9000010602F49077374365D0C10705D0D10510
:102AA00003D5216C41F001012164410705D5D90707
:102AB00003D0216C41F002012164810705D5D907BB
:102AC00003D0216C41F004012164010707D502F015
:102AD0002001314303D0216C41F008012164216CB5
:102AE00000293AD0800604D5900602D5204601F090
:102AF000CFFC20684069216CC0F38010090700D426
:102B000060B3204601F08FFC20684069400621D563
:102B10002068143050E8001F21F0400140E8001206
:102B2000002AF5D1A06BA8B16C490165A06BFEF736
:102B3000C2F9002811D0A06B016D01B0BDE8F040D2
:102B4000084783060FD593060DD52046BDE8F8400B
:102B500001F09EBC2046FFF78EFFF8BD2046FFF730
:102B60008AFF2564F8BD266B2023012E79D1C60685
:102B700077D5D60675D5086848680090486940063C
:102B800040D5A16B086840680004000CEAD0A28D13
:102B90008242E7D9E085C869B0F5807F2DD02068F2
:102BA0000C3050E8001F21F4807140E80012002A28
:102BB000F5D12068143050E8001F21F0010140E8F1
:102BC0000012002AF5D12068143050E8001F21F0CF
:102BD000400140E80012002AF5D184F83E30256318
:102BE00020680C3050E8001F21F0100140E800126E
:102BF000002AF5D1A06BFEF715F9A08DE18D401AE2
:102C000081B229E0A08DE18D401A81B2E08D0028CB
:102C1000A8D00029A6D020680C3050E8002F22F45C
:102C2000907240E80026002EF5D12068143050E85C
:102C3000002F22F0010240E80026002EF5D184F892
:102C40003E30256320680C3050E8002F22F010023F
:102C500040E80023002BF5D12046FFF70BFFF8BD1D
:102C6000FFE705062BD5150629D594F83D00212848
:102C7000F5D1A068B0F5805F01D12069B0B1206ABC
:102C8000411C2162216800784860E08C401E0004ED
:102C9000000CE084E3D12068C16821F08001C160AC
:102CA0002068C16841F04001C160D8E7206A00880F
:102CB000C0F308004860206A801C2062E5E74006F7
:102CC000CDD55006CBD5CA68204622F04002CA6056
:102CD00084F83D3000F0CCF9C1E7000081430008E2
:102CE00070B5040004D094F83D00002510B106E052
:102CF000012070BD84F83C50204600F023F82420C9
:102D000084F83D002068C16821F40051C16020466C
:102D100001F01EFC2068016921F4904101612068E6
:102D2000416921F02A0141612068C16841F40051E4
:102D3000C1602564202084F83D0084F83E00002016
:102D400070BD00002DE9F04786B0064614216846A4
:102D5000FDF74AFDDFF828810221D6F800C00024E3
:102D6000484803220725484B8F064FF040094FF48F
:102D7000806AC4453DD1DFF80CC10CF1140CDCF8BD
:102D8000008048F01008CCF80080DCF800C00CF09F
:102D9000100CCDF814C0D0F800C04CF0010CC0F8F5
:102DA00000C0006800F00100059050028DE813009B
:102DB000CDE9032569461846FEF72AFA344D334813
:102DC000C5E90294C5E904A4AC61EC612C626C62B3
:102DD000C5E900072846FEF751F908B1FDF7F7FEEF
:102DE0007563002205212520AE63FEF7A5FC252092
:102DF00040E0DFF8A080C4453ED1DFF888C00CF188
:102E0000100CDCF8008048F40038CCF80080DCF8C6
:102E100000C00CF4003CCDF814C0D0F800C04CF059
:102E2000010CC0F800C0006800F0010005900C2003
:102E30008DE81300CDE9032569461846FEF7E8F949
:102E4000164D1548C5E90294C5E904A4AC61EC61CE
:102E50002C626C62C5E900072846FEF70FF908B13D
:102E6000FDF7B5FE7563002205212620AE63FEF74F
:102E700063FC2620FEF752FC06B0BDE8F087000098
:102E8000001001403038024000000240B8640240A7
:102E9000A803002000440040A06002400804002075
:102EA00090F83E30202B0ED159B152B190F83C3001
:102EB000012B08D0012380F83C300023036301F08C
:102EC000CDBB0120704702207047000038B5006874
:102ED0001449884225D1144CA01D217862784254AF
:102EE000491CC9B22170042913D30178AA290ED133
:102EF000C17855290BD141788DF8001080788DF874
:102F0000010000231A466946E06802F07BFC0020BD
:102F10002070BDE8384004490122491C0348FFF7EE
:102F2000BFBF38BD004400402C0000200403002037
:102F30002DE9F843044690F83D001F4616460D461D
:102F400020284CD1C5B1BEB194F83C00012846D030
:102F5000012084F83C004FF00008C4F84080212094
:102F600084F83D00FEF752FAA6848146E684A06804
:102F7000B0F5805F03D004E00120BDE8F88320694C
:102F800028B12E465FF0000584F83C800EE0002654
:102F9000FAE78021204601F07EFBA0B9AEB116F819
:102FA000010B21684860E08C401EE084E08C4B46B9
:102FB0004FF0000200970028EBD14FF0400120466F
:102FC00001F069FB30B10320D7E735F8020BC0F3FD
:102FD0000800E6E7202084F83D000020CDE702202D
:102FE000CBE7000070B5044690F83D00202836D1AC
:102FF00091B38AB394F83C00012830D0012084F8C2
:103000003C002162A284E28400252564212084F80A
:103010003D00636B1348D863636B13481864636B9C
:103020001248D864606B134605652668606B321DD4
:10303000FEF78EF821686FF04000086084F83C507D
:103040002068143050E8001F41F0800140E8001271
:10305000002AF5D1002070BDFFE70120FBE7022028
:10306000F9E70000DB4300081D4400089143000815
:1030700070477047FEE7F8B5044641F080008DF8D0
:10308000000017461E46A18800222068FEF7B8F906
:103090004FF4FA652B4601226946A069FFF757F9FC
:1030A000A069FFF712F80128FAD12B4632463946BB
:1030B000A069FFF74CF9A069FFF707F80128FAD1DA
:1030C000A18801222068FEF79BF9F8BD10B51A21EE
:1030D00000F0A7F8A43810BD70B50C4605460121D4
:1030E00000F09FF8024644B1012C0BD0032C0FD006
:1030F000052C13D0062C17D01BE0002002F0F8029C
:10310000E86116E0012002F0F802521CE86110E0CC
:10311000032002F0F802D21CE8610AE0052002F068
:10312000F802521DE86104E0062002F0F802921D48
:10313000E8612846BDE87040012100F0EAB970B5A9
:1031400004460021FFF7C8FF0A2002F013F901210D
:10315000204600F066F805460A20FEF731F845F0F3
:1031600080020121204600F0D4F9642002F002F927
:103170002046216A00F0FAF894F82A10204600F060
:1031800049F994F82B10204600F025F923220C2150
:10319000204600F0BEF9204600F066F994F82410AD
:1031A000204600F041F9FF221F21204600F0B1F92E
:1031B00094F8250094F82610000100EB4100C2B2FB
:1031C0001D21204600F0A5F9204600F0A3F8208D2F
:1031D0002021020A204600F09CF994F828202121A1
:1031E000204600F096F94021204600F01AF840F001
:1031F0003F024021204600F08CF901212046FFF7D4
:103200006BFF0120E0610A2002F0B4F84221204661
:1032100000F007F8122802D04FF4CA7070BDC82021
:1032200070BD0EB501F07F018DF8081001210A462E
:10323000009101AB02A900F003F89DF804000EBD57
:103240002DE9F0470E461546044681889846DDF87C
:10325000209000680022FEF7D3F84FF4FA673B464F
:103260002A463146A069FFF772F8A069FEF72DFFE4
:103270000128FAD13B464A464146A069FEF7BAFF0B
:10328000A069FEF722FF0128FAD1A1882068BDE8D5
:10329000F0470122FEF7B4B82DE9F04100250E46B3
:1032A000074614462846294601E03154401CA042F6
:1032B000FBDB01213846FFF70FFF12213846FFF7ED
:1032C000B0FF40061FD5FF221221384600F021F939
:1032D00013213846FFF7A5FF054610213846FFF7B2
:1032E000A0FF02460D21384600F013F9AC4200D28F
:1032F0002546002405E000213846FFF792FF3055AF
:10330000641CAC42F7DB05213846FFF7E5FE284692
:10331000BDE8F08110B594B00446502212496846C9
:10332000FDF730FA94F824100120884002F029FFBC
:1033300041EC100B94F82500694601EBC00090EDBC
:10334000001B51EC100B53EC112B02F093FD02F01B
:10335000E9FE102801DD012100E00021204600F0F7
:1033600025F814B010BD0000C062000870B5054615
:10337000C8044411C4F307420621284600F0C9F8E6
:10338000052001F0F7FFC4F307220721284600F0CB
:10339000C0F8052001F0EEFFE2B20821284600F057
:1033A000B8F8BDE87040052001F0E4BF70B50C46E8
:1033B00005462621FFF735FF14B140F0080201E071
:1033C00000F0F7022621284600F0A3F8BDE870407F
:1033D0000A2001F0CFBF10B52D2901D22D2105E023
:1033E000F02901D9F02106E0782904D805222D39E9
:1033F00091FBF2F103E00A221E31B1FBF2F1C9B2F6
:103400002031CAB20B2100F084F8BDE810400A2038
:1034100001F0B0BF10B50A46092100F07AF8BDE806
:1034200010400A2001F0A6BF70B50C4606460C29D4
:1034300001DD0C2402E0072C00DA07241E21FFF72F
:10344000F0FE05460A2001F095FF64F31F15EAB26D
:103450001E21304600F05DF80A2001F08BFF304657
:10346000BDE87040FFF756BF10B504461E21FFF7B8
:10347000D8FE40F007021E21204600F04AF8BDE8C1
:1034800010400A2001F076BF0521FFF725BE2DE987
:10349000F0410F461C46164680460121C569FFF7DC
:1034A0001BFE0E214046FFF7BCFE02460D214046A2
:1034B00000F02FF832462221404600F02AF8334629
:1034C0003A4600214046FFF7D6FD03214046FFF76C
:1034D00003FE12214046FFF7A4FE00070BD5FF2292
:1034E0001221404600F015F829464046FFF7F4FD4A
:1034F0000120BDE8F081641E2404240C03D00120C7
:1035000001F038FFE5E729464046FFF7E5FD0020DA
:10351000EFE70EB541F080018DF8081001218DF81C
:1035200004200A46009101AB02A900F001F80EBD8B
:103530002DE9F0470E461546044681889846DDF889
:10354000209000680022FDF75BFF4FF4FA673B46CE
:103550002A463146A069FEF7FAFEA069FEF7B5FDDE
:103560000128FAD13B464A464146A069FEF7EFFEE4
:10357000A069FEF7AAFD0128FAD1A1882068BDE85C
:10358000F0470122FDF73CBF7FB500251A480095A2
:103590000195029517490395016001244FF480318C
:1035A0000461C0E90115047680F820501349C0E990
:1035B0000A150226C661C56080F830404461FDF7F7
:1035C000BBFB08B172B6FEE706200095CDE90140CD
:1035D00069460948FDF7FEFA08B172B6FEE769468A
:1035E00005480196FDF7F6FA002801D072B6FEE70D
:1035F0007FBD000000200140640100200100000F99
:10360000154808B5016841F480010160016801F4C2
:1036100080010091016841F40011016000680022FE
:1036200000F40010009005211120FEF785F811200C
:10363000FEF774F8002205213820FEF77DF83820C7
:10364000FEF76CF8002205214620FEF775F8BDE86C
:1036500008404620FEF762B8303802402DE9F043BA
:1036600087B014216846FDF7BFF83B480024016885
:1036700041F004010160016801F004010591016855
:1036800041F080010160016801F08001059101684D
:1036900041F001010160016801F00101059101683B
:1036A00041F00201016000682C4F00F002004FF46D
:1036B00000550590002229463846FDF7A1FEDFF8A7
:1036C000A08000224FF4E0414046FDF799FE012220
:1036D000DFF89090D60231464846FDF791FE012270
:1036E00051024046FDF78CFE00950125CDE90154BD
:1036F000694638460394FDF78BFD4FF4E440009093
:10370000CDE90154694640460394FDF781FDE80385
:10371000CDE90004694640460294FDF779FD280290
:1037200000904FF48810CDE9010469464846FDF742
:103730006FFD0096CDE90154694648460394FDF7B4
:1037400067FD002205211720FDF7F6FF1720FDF782
:10375000E5FF07B0BDE8F0833038024000080240C2
:10376000000402400000024010B586B014216846F3
:10377000FDF73AF81B48002419490594C0E90014E4
:103780007F218160FF21C0E9031444618461FEF759
:1037900071FB08B172B6FEE78DF800408DF801406C
:1037A0008DF802400394012269460E480494FEF706
:1037B00011FC08B172B6FEE701208DF814008DF8F7
:1037C00015008DF8160002468DF8174005A905482A
:1037D000FEF7B4FB002801D072B6FEE706B010BDBC
:1037E00000280040000200200F4810B50D4901607C
:1037F0004FF48271416000218160C1604FF400721A
:103800000161C0E905121022C0E90721416281620D
:103810000A21C162FEF75CFC002801D072B6FEE707
:1038200010BD0000003001402002002010B586B01D
:1038300000241848009401940294039404941449B9
:103840000594016042F20F71C0E9011440F2E731C2
:10385000C0E903148021C0E90541FEF75DFF08B10E
:1038600072B6FEE74FF48050009069460948FEF7B3
:10387000D5FF08B172B6FEE7049404A90548059483
:10388000FEF70CFF002801D072B6FEE706B010BDAF
:103890000000014078020020FEE7FEE7002103E07F
:1038A000491C0A38C9B2C0B20A28F9D2090740EA4D
:1038B000116070472DE9F041044600680025C16899
:1038C000490618D4C16841F08001C160FDF79EFD32
:1038D00006464FF47A78042707E000BFFDF796FD0F
:1038E000801B404501D9677701252068C0684006E4
:1038F00001D4002DF2D02846BDE8F08170B5044611
:1039000000680025C16821F08001C16020688068DE
:10391000800606D42046FEF7BDFB10B10420607778
:103920000125284670BDF8B5044640684FF48273FF
:10393000984221D1A0684FF48065B0F5004F01D0C6
:10394000A8420AD12068066826F040060660606832
:10395000984211D1A068A8420ED000920B460022D6
:103960008021204600F03AF8002804D0606D40F035
:10397000200060650320F8BD00920B460022012163
:10398000EFE7000038B504461248134B0068B0FB5F
:10399000F3F04FF47A73584300906068B0F5827F7B
:1039A0000DD10B46009200228021204600F016F82F
:1039B00070B1606D40F020006065032038BD009854
:1039C00030B1401E009020688068C0430006F6D5E4
:1039D000002038BD4800002000366E012DE9F84374
:1039E0001E46914688460446089DFDF70FFD401B84
:1039F000351AFDF70BFD074625480068C0F3CB30AC
:103A0000684338E0701C37D0FDF700FDC01BA842AA
:103A100003D215B1009860B32CE02068416821F012
:103A2000E00141606068B0F5827F0BD1A068B0F51D
:103A3000004F02D0B0F5806F04D12068016821F0FA
:103A400040010160A06AB0F5005F09D120680168FB
:103A500021F4005101602068016841F400510160C7
:103A6000012084F85100002084F850000320BDE8B4
:103A7000F8830025401E00902068816838EA010024
:103A800004D000214945BDD10020F0E70121F9E72C
:103A900048000020012001F03BF8FBE710B5502062
:103AA00080F31188BFF34F8FBFF36F8F02F04CF894
:103AB00018B104494FF080500860002080F311884D
:103AC00010BD000004ED00E030B593B03021684631
:103AD000FCF78AFE14210CA8FCF786FE1E48002580
:103AE000016841F080510160006800F08050119041
:103AF0001A48016841F4404101600068022400F462
:103B000040401190092000904FF480300190012036
:103B1000CDE90504800507900C2008906020CDE9D0
:103B2000090404200B906846FDF7EEFF08B172B659
:103B3000FEE70CA90F2081E831004FF48050CDE959
:103B40000F0503210CA8FDF7D3FE002801D072B6A3
:103B5000FEE713B030BD0000403802400070004066
:103B60000248016841F470010160704788ED00E08F
:103B70000148FEF7C2BE0000780200200148FEF7AF
:103B8000BCBE0000BC060020F0B502681D4B1E4CF8
:103B90009F031E4D1E4E984207D0B84205D0A0424A
:103BA00003D0A84201D0B04204D122F0700C4A6880
:103BB00042EA0C02984210D0B8420ED0A0420CD07B
:103BC000A8420AD0B04208D0124CA04205D0124CF4
:103BD000A04202D0114CA04203D122F44074CA6822
:103BE00022434C6922F08002224302608A68C2624A
:103BF0000A688262984201D1096901630121416129
:103C0000F0BD00000000014000040040000800403A
:103C1000000C0040004001400044014000480140C9
:103C200010B5846842EA032224F47F440A43224305
:103C3000826010BD826822F070020A4342F00701E0
:103C40008160704710B5036A046A24F001040462BD
:103C5000846924F0F00444EA021423F00A020A43BF
:103C60008461026210BD10B5036A23F01003036281
:103C70008369046A23F4704343EA023224F0A00308
:103C800043EA01118261016210BD0000C6B0DFF895
:103C9000F8A0DFF8F8904FF0000B4FF00208032770
:103CA0006C46AA208DF8000055208DF801000325F0
:103CB0008DF802B00021534601EB410000EBC1003A
:103CC00003EB800292F8200060556D1CA8B292F8B8
:103CD00024502554401C85B25FF0000004EB050C15
:103CE00052F820602D1D401CC0B2CCF80060ADB26F
:103CF0000828F3D3491CC9B20329DDD3142224496F
:103D000040A8FCF73FFD002040A901EB80036219A9
:103D10002D1D401C1B68C0B21360ADB20528F4D342
:103D2000B9F80400401C0004000CA9F8040029D0D4
:103D3000B9F8021064225143B1FBF0F161556D1CDA
:103D4000A9B25A226054491C8EB2F01B85B204F805
:103D50000850E019294600F01DFDED1CA9B2684687
:103D6000FCF7B3FEA055761CB1B2000A6054491CA2
:103D70008AB269460748FFF735F94FF4FA7001F047
:103D8000F9FA8EE70021D9E7E00000202C0000209E
:103D90008862000804030020084DEC1E00F006FDB8
:103DA0002078295C02F040F82078401C00F00700E1
:103DB0002070052001F0DEFAF0E70000030000208B
:103DC0008B4C88B04FF0030B4FF000080126002504
:103DD00006FA05F0A070642001F0CCFA6D1CEDB27B
:103DE000082DF5D35FF0070506FA05F0A0706420F2
:103DF00001F0C0FA6D1E6DB2002DF5DA00254FF00E
:103E0000FF09474684F80290C82001F0B3FAB8468B
:103E1000A770C82001F0AEFA6D1CEDB2052DF1D3EC
:103E200000252F4606FA07F02843C5B2A570962054
:103E300001F0A0FA7F1CFFB2082FF3D35FF0070751
:103E400006FA07F08543A570962001F093FA7F1ECD
:103E50007FB2002FF4DA0025C5F1070206FA05F05B
:103E600006FA02F10843A070962001F083FA6D1C57
:103E7000EDB2042DF0D3002555274FF0AA09A77005
:103E8000C82001F077FA84F80290C82001F072FA95
:103E90006D1CEDB2042DF2D300255F4607FA05F044
:103EA000A070962001F066FA6D1CEDB2062DF5D9D2
:103EB0005FF0050507FA05F0A070962001F05AFAA8
:103EC0006D1E6DB2002DF5DA5FF00005C5F1070239
:103ED00006FA05F006FA02F10843A1780843A0703B
:103EE000962001F047FA6D1CEDB2042DEED30325A8
:103EF000C5F1070206FA05F006FA02F10843A178B7
:103F00008143A170962001F035FA6D1E6DB2002D2F
:103F1000EEDA38A10025D1E9000103AFCDE90301B4
:103F2000785DA070962001F025FA6D1CEDB2082D89
:103F3000F6D300254FEA0507C7F1070106FA07F097
:103F400006FA01F210432843C5B2A570962001F08D
:103F500011FA7F1CFFB2042FEED30327C7F107012C
:103F600006FA07F006FA01F210438543A570962081
:103F700001F000FA7F1E7FB2002FEFDA1FA00027AA
:103F800000680DF1140A0DF1040905901AF80700F4
:103F9000A070C82001F0EEF919A00025D0E90010AA
:103FA000CDE9011019F80500A070C82001F0E2F970
:103FB0006D1CEDB2052DF5D35FF00005C5F10701CD
:103FC00006FA05F006FA01F21043A070C82001F0CD
:103FD000D1F984F80280642001F0CCF96D1CEDB2B7
:103FE000042DEBD37F1CFFB2042FCFD3EFE60000EC
:103FF0000000002003060C183060C08181422418A4
:104000001824428100000000CAB000F001FCDFF873
:1040100018A24FF4FA79002683484FF0000B64226F
:1040200010F8068081480188491C018047A9DAF808
:104030000C0001F047FC012808D19DF81D119DF8E6
:104040001C0100F019FD0A2001F094F900257848C0
:10405000FFF71AFA082001F08DF976A064230068B2
:1040600048908DF82181042248A97148FFF70FFA82
:104070002B46424670A111A8FCF7DEF911A8FCF707
:104080001DFB82B211A97848FEF7ACFF01F056FD86
:10409000074677E0754C2078002870D001F0C8F80A
:1040A0000020207001F0E4F8402269466048FFF7E4
:1040B000F3F8040063D05E48FFF708F8CAF8080078
:1040C0004FF400516A48FDF793F99DF80000AA28C3
:1040D000EAD10DEB040010F8010C5528E4D1282C8E
:1040E000E2D39DF801104145DED19DF8020022285F
:1040F000DAD1262CD8DDBDF8250041BA3B91242128
:104100000DF1010000F028FB3B998842CCD103213E
:1041100000203EAD6B465A18091D126845F8202054
:10412000401C0828F7DB5D5C491C404613F801B0D1
:1041300000F0E0FC070019D401F07AF807EB470023
:1041400000EBC7013A4820222C3000EB81000746E3
:104150003EA9FCF717FB07F8205F87F801B0DAF8F3
:10416000080078600120387201F082F82246694622
:104170004046DAF8083000F0C5FF48E0FFE70520C8
:1041800001F0F8F801F0DAFCC01B484582D3434641
:104190006A1C38A125A8FCF74FF925A8FCF78EFA70
:1041A00082B225A93048FEF71DFF502001F0E2F849
:1041B0006D1C032DFFF64BAFBBF1000F27D1364826
:1041C00042460188491C018034A111A8FCF734F94A
:1041D00011A8FCF773FA82B211A92348FEF702FF77
:1041E000404600F087FC040011D401F021F804EBF4
:1041F000440000EBC4020E4800212C3000EB82008A
:1042000080F828106FF07E01416201F031F8C8207B
:1042100001F0B0F8761C032EFFF4FEAE4FF4FA6006
:1042200001F0A8F8F7E600000C00002030000020A4
:10423000B4000020AA0000554D41535445523A2085
:10424000526571756573742073656E7420746F2088
:104250004E4F4445202530325820287265747279BB
:104260003D2564290D0A0000C00200202000002026
:10427000000802404D41535445523A205265747231
:104280007920256420666F72204E4F4445202530EA
:1042900032582E2E2E0D0A002E0000204D41535470
:1042A00045523A204E4F20524553504F4E534520D1
:1042B00046524F4D204E4F44452025303258210D57
:1042C0000A000000084C4FF47A75607840F0030053
:1042D0006070284601F04EF8607820F003006070AE
:1042E000284601F047F8F0E70000002092B0144D96
:1042F000144E154FDFF854804FF0FF34224610A9BA
:10430000E86801F0DFFA0128F8D19DF8400030702C
:104310009DF8411039708DF844008DF84510002348
:10432000224611A9D8F8000001F0BCF99DF84130EF
:104330009DF8402006A16846FCF77EF8DEE7000005
:104340002C0000201D0000201C0000201800002070
:10435000554152543220434D44205265636569767D
:1043600065643A204E6F646520253032582C205306
:1043700074617465203078253032580D0A000000D1
:1043800010B5806B0021C185C184FEF774FB10BDA0
:1043900070B5846B2068406994F83D10C0F3C0107C
:1043A0000025212904D118B1E584204600F062F8E7
:1043B0002068406994F83E10C0F38010222904D18F
:1043C00018B1E585204600F02EF8206C40F0100072
:1043D00020642046FEF74FFB70BD10B50146806B90
:1043E00009680968C90516D40021C184016814311F
:1043F00051E8002F22F0800241E80023002BF5D184
:1044000001680C3151E8002F42F0400241E80023DE
:10441000002BF5D110BDFEF72BFE10BD10B5806B43
:10442000FEF727FE10BD01680C3151E8002F22F481
:10443000907241E80023002BF5D10168143151E856
:10444000002F22F0010241E80023002BF5D1016B7F
:10445000012909D101680C3151E8002F22F0100226
:1044600041E80023002BF5D1202180F83E100021E7
:104470000163704701680C3151E8002F22F0C0023F
:1044800041E80023002BF5D1202180F83D10704732
:1044900008B590F83E10222901D0022008BD82689C
:1044A0004FF480539A4201D1016921B1816A9A4245
:1044B0001BD04AB10AE00268816A5268C2F308025E
:1044C0000A80816A891C08E0026972B10268526838
:1044D00002F07F020A70816A491C8162C18D491E07
:1044E0000904090CC18503D019E002685268F1E79C
:1044F0000168CA6822F02002CA600168CA6822F412
:104500008072CA6001684A6922F001024A61202172
:1045100080F83E10016B012903D0FEF7D7FC002084
:1045200008BD0021016301680C3151E8002F22F021
:10453000100241E80023002BF5D101680A68D20679
:1045400002D50A6849680091818DFEF793FAE6E783
:1045500070B5044600680169E26821F440511143D6
:1045600001612169A068E269084361691143084358
:104570002168CA6849F20C639A430243CA60206802
:104580004169A26921F440711143416131492068B8
:10459000884202D03049884202D1FDF773FA01E027
:1045A000FDF760FAE2690023192164253226B2F58D
:1045B000004F626828D0A0FB0101930F9200FBF727
:1045C000C3FE0146B0FBF5F06FF01802504301EB5B
:1045D000800006EB0010B0FBF5F000F0F002B1FB3C
:1045E000F5F002EB0012B1FBF5F06FF01803584341
:1045F00001EB800006EB0010B0FBF5F000F00F00BF
:1046000021681044886070BDA0FB010192185B41D5
:10461000FBF79AFE0146B0FBF5F00201B1FBF5F0A5
:104620006FF01803584301EB800006EBC000B0FBAD
:10463000F5F000F0F80002EB4002B1FBF5F0584352
:1046400001EB800006EBC000B0FBF5F000F00700C6
:10465000D6E700000010014000140140816282850D
:10466000C28500210164222280F83E2080F83C109F
:10467000016921B10168CA6842F48072CA600168A8
:104680004A6942F001024A610068C16841F02001B4
:10469000C160002070472DE9F041984617460E464C
:1046A0000446069D27E0681C25D02DB1FCF7AEFE20
:1046B000A0EB0800A8421ED920680C3050E8001F6B
:1046C00021F4D07140E80012002AF5D1206814309E
:1046D00050E8001F21F0010140E80012002AF5D146
:1046E000202084F83D0084F83E00002084F83C003F
:1046F0000320BDE8F0812068006836EA000004D09D
:104700000020B842CFD00020F3E70120F9E70000F5
:104710000148FEF7B1B90000C00200200148FEF7D1
:10472000ABB9000004030020FEE70907090E0028CA
:1047300004DB00F1E02080F80014704700F00F0067
:1047400000F1E02080F8141D704730380A2801D2AB
:104750000120704700207047F0B505464FF6FF7402
:104760002046002241F2210611E0AB5C80EA0320E2
:104770000023070403D586EA400080B201E004EA82
:1047800040005B1CDBB2082BF3D3521C92B28A426E
:10479000EBD3F0BD10B5002304E0C45C5440C45416
:1047A0005B1C9BB28B42F8D310BD000030B515489E
:1047B0000068002800DA404282B213488821017064
:1047C000922141708170CF21C170BF21017164219C
:1047D000B2FBF1F30A21B3FBF1F401FB14340B4BF0
:1047E0001C5D4471B2FBF1F4B4FBF1F501FB15441F
:1047F0001C5D8471B2FBF1F401FB1421595CC171A1
:1048000030BD000014000020030000206262000898
:1048100000B58BB0684600F051F92C226946134868
:10482000FBF7B0FF1148124902C0491520F8041BDC
:10483000104902C0CA1402804160891501810E49E5
:10484000C16040F2B3114161072101764176012137
:104850008176FF2181776421C177082181830BB0A4
:1048600002485DF804EBFEF76ABC0000B4000020CB
:1048700000040240000002402002002055488AB097
:10488000016841F470010160BFF34F8FBFF36F8F78
:1048900003220021012000F09FFE4F4D0022022143
:1048A00068600A2000F098FE4C490022086002214E
:1048B0000A2000F091FE4A490860FCF7ADFEFFF7C0
:1048C00003F9FEF7CBFEFEF79BFEFEF75DFEFEF75B
:1048D0008BFF454843494FF4E13700240160C0E9AC
:1048E00001740C26C460C0E904468461C461FEF70B
:1048F000F7F908B172B6FEE73D483C4901603D4911
:10490000C0E901144FF48041C0E90341446184616E
:10491000C4610462FCF780FD08B172B6FEE7FEF7E1
:1049200023FFFEF783FF3048334944300160C0E97C
:104930000174C460C0E904468461C461FEF7D0F923
:1049400008B172B6FEE7284801222C494430FEF730
:10495000A7FA0126CDE90064770200233A4628A190
:104960002A4801F085F8CDE900640023802228A1BF
:104970002A4801F07DF8CDE900640023802228A1B7
:104980002B4801F075F8CDE900640023802229A1AD
:104990002B4801F06DF8CDE9006400233A4629A1C7
:1049A0002B4801F065F8CDE900640023320229A10B
:1049B0002C4801F05DF800F029FD1C222A4902A8CC
:1049C000FBF7E0FE002102A800F0AEF8A86000F0BE
:1049D000A6F8FEE788ED00E0200000203800002067
:1049E0001800002000100140C002002000540040C8
:1049F000AC010020A0860100004400402D000020F2
:104A00005461736B4D617374657200000940000856
:104A10005461736B4869656E54686900993D00087C
:104A20005461736B48696575556E674C6564000029
:104A3000C13D00085461736B52656C6179000000E0
:104A4000C54200085461736B44617461000000004A
:104A50008D3C000852656C61795541525454617324
:104A60006B000000ED4200086C6200080146002067
:104A7000842900D0C81C70471FB5AA238DF80030C8
:104A80008DF80100B1208DF802008DF8031003218C
:104A90000DF10100FFF760FE010A8DF804108DF89A
:104AA000050055208DF8060007225023694602486C
:104AB000FEF7EDFC1FBD0000B400002000B58BB078
:104AC00040F2B111089107218DF824108DF82510BE
:104AD00001218DF82610FF218DF82A1064218DF810
:104AE0002B100821ADF828102C226946FBF74AFE4E
:104AF0000BB000BD0146054A0020135C8B4204D078
:104B0000401C0328F9D34FF0FF3070470C00002001
:104B100010B500B9012000F02DFC002010BD10B52B
:104B200000F074FC002010BD7FB50D4604464169BD
:104B3000B0F9080081B1A16971B1FFF797FFD4E91D
:104B400005128DE80700D4E900102B46226900F019
:104B5000BCFF039004B070BDFFF788FF03A9CDE947
:104B60000001208A2B4682B2D4E9001000F080FFB9
:104B7000012801D00020EDE70398EBE72DE9F04193
:104B8000184C0F460546E6682068001D00F000FB43
:104B900038B9206890F82C100120884021698143A1
:104BA0002161681C07D137B12168BDE8F0410E488A
:104BB000091D00F031BB20683544B54245602168CD
:104BC00005D2A06BBDE8F041091D00F00DBB606B84
:104BD000091D00F009FBA06A854200D2A562BDE86C
:104BE000F08100004C000020E00700202DE9F0419A
:104BF000054600F01DFB2E4CA068401CA0602068FC
:104C00002C4F10B1606940B32DE02560A0680128E9
:104C100029D1002606EB860007EB800000F0D6FACB
:104C2000761C072EF6D323488C3000F0CFFA2148AB
:104C3000A03000F0CBFA1F48B43000F0C7FA1D488E
:104C4000C83000F0C3FA1B48DC3000F0BFFA194846
:104C50008C3060631430A06305E02068E96AC06AA4
:104C6000884200D82560606A401C6062E96A0120C1
:104C7000226988401043206101EB810007EB80002E
:104C8000291D00F0C9FA00F0F3FA606900280CD081
:104C90002068E96AC06A884207D207494FF080500D
:104CA0000860BFF34F8FBFF36F8FBDE8F081000046
:104CB0004C0000200407002004ED00E030B4026C3A
:104CC0000B46002A0BD0C1681144C1608468A14220
:104CD00001D30168C16030BC1846FBF70EBD30BC83
:104CE00070472DE9F041856B174604460026026C9B
:104CF00082B1C7B1E068FBF700FDE168206C091ADA
:104D0000E1602268914202D2A168081AE060022F95
:104D100016D017E02068A8B9A06800F07BFF06460F
:104D20000020A0600EE06068FBF7E7FC216C606883
:104D300008446060A168884204D32068606001E094
:104D400005B16D1E6D1CA5633046BDE8F08110B540
:104D5000044690F8510058B101280CD002280FD019
:104D6000502080F31188BFF34F8FBFF36F8FFEE7A2
:104D7000206B00F091FA2046BDE8104000F08CBA9C
:104D800010BD000010484FF47051420706D0C01DFE
:104D90000D4920F00700411AC1F570510B4A00235C
:104DA0000144C2E900030839183A21F007011160F3
:104DB0004B600B600B1AC0E9001393604FF000408A
:104DC0005360506170470000F4070020A0000020ED
:104DD000144E154CA6F1C8074FF08058DFF84C90E0
:104DE00012E000BF00F024FAF068C568281D00F04A
:104DF000CFF9A068401EA0606068401E606000F0AF
:104E000037FA2846FFF7A3FF60680028EAD1386820
:104E10000128F9D9C9F80080BFF34F8FBFF36F8F16
:104E2000F2E70000CC0700204C00002004ED00E079
:104E30000346009829B10260C0E90F31012100F05A
:104E4000EDBB0060F8E72DE9F0479A46DDE90984FB
:104E500081466FF00303206B03EB82021044089E2F
:104E600020F00707780707D0502080F31188BFF3A0
:104E70004F8FBFF36F8FFEE7002561B1002023182D
:104E80000A5C83F834200A5C12B1401C1028F6D367
:104E900084F8435001E084F83450072E00D30626EE
:104EA000E662C4E91165201D00F09BF904F11800C9
:104EB00000F097F92461C6F107006462A061E5641F
:104EC00084F8505052464946384600F005F92060B3
:104ED000B8F1000F01D0C8F80040BDE8F08700002D
:104EE00030B5114900E011460A688242FBD34B6895
:104EF0005C18844203D140681844486008464368FF
:104F00001C18944209D1084C183C2468A24209D0CC
:104F100052681A4442600A6812680260814200D0F6
:104F2000086030BD0460F9E7A000002010B5044619
:104F300000F07EF9A06B28B15FF0000400F098F952
:104F4000204610BD0124F9E70648416B096829B1E4
:104F5000416BC968C9684968816270474FF0FF3189
:104F6000FAE700004C00002008484068401C4FF061
:104F7000500080F3118804D0BFF34F8FBFF36F8FC1
:104F8000FEE7BFF34F8FBFF36F8FFEE7A80000204F
:104F90002DE9F041044600F04BF994F9455004F135
:104FA000240609E0606A48B1304600F07FFE08B18F
:104FB00000F00EFA6D1E6DB2002DF3DC4FF0FF36DF
:104FC00084F8456000F054F900F032F994F9445047
:104FD00004F1100709E0206948B1384600F066FE88
:104FE00008B100F0F5F96D1E6DB2002DF3DC84F808
:104FF0004460BDE8F04100F03BB900002DE9F0410C
:105000000546002700F038FA324E306808B9FFF73D
:10501000B9FE706905424ED1C5B3083568070ED098
:1050200005F00700C0F108000544680707D05020CC
:1050300080F31188BFF34F8FBFF36F8FFEE72DB35F
:105040007068854237D82348183001460C6801E063
:1050500020460C466168A94202D221680029F7D196
:1050600031688C4227D00768216801606068083782
:10507000411B10290FD96019420708D0502080F336
:105080001188BFF34F8FBFF36F8FFEE713E04160CE
:105090006560FFF725FF61687068401A7060B2684C
:1050A000904200D2B060706901430020C4E9000161
:1050B000F068401CF06000F033FE780707D0502005
:1050C00080F31188BFF34F8FBFF36F8FFEE7384631
:1050D000BDE8F0818800002010B5031F4FF08074F8
:1050E0001C601B1F21F001011960191F044B0B608C
:1050F00014390A60091F6FF0020244380A6010BDBB
:10510000694F00082DE9F041B2B00F4602466E46E5
:105110009846304613A1FBF78FF904460325301952
:105120007A5D13A1FBF788F96D1C0444232DF6DB8F
:1051300097F8243097F8232030190FA1FBF77CF95A
:105140002044304442460FA1FBF776F96846FBF74E
:10515000B5FA82B2322369460C48FDF7E9FE32B057
:10516000BDE8F08141412025303258203232200004
:105170002530325800000000253032582530325892
:10518000000000002025640D0A000000C00200207D
:10519000D0E9013201699A60D0E901235A604A6876
:1051A000824201D182684A60002202610868401E82
:1051B0000860086870470000034B036003F1540067
:1051C00008608020106070476804002000F108012A
:1051D0004FF0FF32C0E90112C1600161002101609E
:1051E000704700210161704730B50B685A1C02D02E
:1051F00000F1080202E0026904E0224654682568D2
:105200009D42FAD953684B6099608A605160086189
:105210000168491C016030BD42684A6093688B6038
:1052200093685960916008610168491C016070478A
:10523000502080F31188BFF34F8FBFF36F8F0A495F
:105240004868401C486001280CD10848006810F0EC
:10525000FF0F07D0502080F31188BFF34F8FBFF3AB
:105260006F8FFEE770470000A800002004ED00E00B
:105270000849486828B1401E486001D180F3118870
:105280007047502080F31188BFF34F8FBFF36F8FAB
:10529000FEE70000A800002070B500282AD0164DB7
:1052A000A0F1080460686969084207D1502080F3C2
:1052B0001188BFF34F8FBFF36F8FFEE722683AB1BB
:1052C000502080F31188BFF34F8FBFF36F8FFEE73D
:1052D0008843606000F0D0F86068696808446860DE
:1052E0002046FFF7FDFD2869401C2861BDE870409D
:1052F00000F016BD70BD0000880000204FF0E020D7
:1053000000210161816105494FF47A720968B1FB9E
:10531000F2F1491E416107210161704748000020F8
:1053200010B5FAF7EDFF114910280ED300F1E02077
:1053300090F8F0030A78904207D2502080F3118849
:10534000BFF34F8FBFF36F8FFEE70948006889688E
:1053500000F4E060884207D9502080F31188BFF341
:105360004F8FBFF36F8FFEE710BD0000A800002035
:105370000CED00E010B5020014D00F48006B38B1FE
:10538000502080F31188BFF34F8FBFF36F8FFEE77C
:1053900000F072F800211046FFF7F0FB00F0C0FCAF
:1053A000002807D105494FF080500860BFF34F8FA8
:1053B000BFF36F8F10BD00004C00002004ED00E033
:1053C00002490A6A0260C968416070474C000020C7
:1053D00001490120C86170474C00002010B50C46FF
:1053E00050B1094909681831FFF7FEFE2046BDE8B3
:1053F00010400121FFF7C2BB502080F31188BFF39A
:105400004F8FBFF36F8FFEE74C00002010B586B0C2
:105410000024039405AA04A903A80494FFF7CCFE72
:10542000DDE903010094CDE9011000230EA110482D
:10543000059A00F04AFB0F490028C86211D050209D
:1054400080F31188BFF34F8FBFF36F8F4FF0FF30A2
:10545000886201204861CC6006B0BDE8104000F0D1
:1054600041B806B010BD000049444C4500000000A2
:10547000D14D00084C0000200248016B491C01631B
:10548000704700004C0000201448016B11B101214D
:10549000C16170470021C1610169B1FA81F1C1F1B7
:1054A0001F0101EB81020E4951F822306BB101EB73
:1054B000820101F108034A6852684A609A4201D1A8
:1054C00052684A60D16801607047502080F31188AB
:1054D000BFF34F8FBFF36F8FFEE700004C0000203B
:1054E000040700201CB537480168374A914207D1AC
:1054F000502080F31188BFF34F8FBFF36F8FFEE70B
:1055000000683149491E884207D1502080F3118834
:10551000BFF34F8FBFF36F8FFEE72C4908780190E0
:10552000FF20087008788DF800009DF800009DF8B5
:10553000002000F0F000904207D0502080F3118846
:10554000BFF34F8FBFF36F8FFEE79DF80000204C35
:1055500000F0500020700720A06005E09DF80020BA
:1055600052008DF80020401E9DF800201206F5D450
:10557000A060032807D0502080F31188BFF34F8F1D
:10558000BFF36F8FFEE74FF44070A0600198087082
:105590000C482030016841F470010160016841F05D
:1055A00070410160FFF7AAFE00206060FAF770FE0C
:1055B0000848016841F040410160FAF755FE0020BB
:1055C0001CBD000000ED00E071C20F4100E400E0EE
:1055D000A800002034EF00E0F8B517460E4605009D
:1055E00013D005FB06F04830FFF708FD04000AD091
:1055F000002084F8460004F148023B463146284624
:105600000094FFF715FC2046F8BD502080F3118868
:10561000BFF34F8FBFF36F8FFEE7000070B50D46ED
:10562000040025D0FFF704FED4E90F20216802FB17
:105630000011A1600021A163216861600A46D4E9DC
:105640000F01401E00FB0121E16021464FF0FF30B9
:1056500001F8440F487004F110008DB1FFF7B6FD5A
:1056600004F12400FFF7B2FDFFF702FE012070BD38
:10567000502080F31188BFF34F8FBFF36F8FFEE789
:1056800021690029F0D000F011FB0028ECD004497A
:105690004FF080500860BFF34F8FBFF36F8FE3E789
:1056A00004ED00E02DE9FF4782B01D468A464FF029
:1056B0000008040003D0BAF1000F08D011E0502018
:1056C00080F31188BFF34F8FBFF36F8FFEE7206C1D
:1056D00038B1502080F31188BFF34F8FBFF36F8F25
:1056E000FEE7022D0AD1E06B012807D0502080F39D
:1056F0001188BFF34F8FBFF36F8FFEE700F010FAF2
:105700003F4F4FF000094FF0805648B9049838B128
:10571000502080F31188BFF34F8FBFF36F8FFEE7E8
:10572000FFF786FDA06BE16B884207D3022D05D001
:105730000498D0B1B8F1000F1AD01EE02A465146A5
:105740002046FFF7CEFA616A19B104F1240000F097
:10575000ADFA20B13E60BFF34F8FBFF36F8FFFF7FD
:1057600087FD012006B0BDE8F087FFF781FD22E04C
:105770006846FFF725FE4FF00108FFF779FDFFF7B8
:105780007BFEFFF755FD94F94400401C01D184F8DD
:10579000449094F94500401C01D184F84590FFF7EE
:1057A00067FD04A9684600F029F930B12046FFF7EB
:1057B000EFFB00F0B5FA0020D4E7FFF739FDA06B4E
:1057C000E16B884213D1FFF753FD04F110000499F7
:1057D000FFF704FE2046FFF7DBFB00F0A1FA0028EC
:1057E0009ED13E60BFF34F8FBFF36F8F98E7FFF7F7
:1057F0003FFD2046FFF7CCFB00F092FA90E7000057
:1058000004ED00E02DE9F0471F469046894604006C
:1058100003D0B9F1000F08D011E0502080F31188B7
:10582000BFF34F8FBFF36F8FFEE7206C38B150206E
:1058300080F31188BFF34F8FBFF36F8FFEE7022F06
:105840000AD1E06B012807D0502080F31188BFF304
:105850004F8FBFF36F8FFEE7FFF762FD5020EFF32E
:10586000118680F31188BFF34F8FBFF36F8FA06B4A
:10587000E16B884206D3022F04D0002086F3118802
:10588000BDE8F08794F94550A06B3A46494620465A
:10589000FFF727FA681C04D06D1C84F845500120DE
:1058A000ECE7606A0028FAD004F1240000F0FEF969
:1058B0000028F4D0B8F1000FF1D00121C8F8001091
:1058C000EDE700002DE9F747002683B08A46040083
:1058D00003D0BAF1000F08D011E0502080F31188F6
:1058E000BFF34F8FBFF36F8FFEE7206C38B15020AE
:1058F00080F31188BFF34F8FBFF36F8FFEE700F087
:105900000FF9DFF8F4804FF000094FF0805748B9E5
:10591000059838B1502080F31188BFF34F8FBFF343
:105920006F8FFEE7FFF784FCA56BC5B1514620469B
:10593000FFF7C4F96D1EA563206950B104F1100092
:1059400000F0B4F928B1C8F80070BFF34F8FBFF36F
:105950006F8FFFF78DFC012006B0BDE8F08705983A
:1059600008B11EB106E0FFF783FC27E06846FFF7A9
:1059700027FD0126FFF77CFCFFF77EFDFFF758FCB3
:1059800094F94400401C01D184F8449094F94500F6
:10599000401C01D184F84590FFF76AFC05A96846D0
:1059A00000F02CF8002820460AD0FFF7F1FA00F0AA
:1059B000B7F92046FFF7BAFA0028B3D00020CBE7AA
:1059C000FFF7B4FA90B104F124000599FFF706FD42
:1059D0002046FFF7DDFA00F0A3F90028A2D1C8F8AD
:1059E0000070BFF34F8FBFF36F8F9BE72046FFF729
:1059F000CFFA00F095F995E704ED00E02DE9F041CC
:105A00000C46050011D0C4B1FFF712FC174BDA6841
:105A10006E682068911B471C17D02F681B6A9F4235
:105A200019D0964217D8012410E0502080F3118835
:105A3000BFF34F8FBFF36F8FFEE7502080F31188C5
:105A4000BFF34F8FBFF36F8FFEE70024FFF710FC0B
:105A50002046BDE8F081884205D9401A20602846DA
:105A6000FFF7AEFCF1E700202060DCE74C000020EF
:105A70002DE9FF5F8346DDE90E87994616468A4683
:105A80009000FFF7BBFA05001CD05420FFF7B6FAD0
:105A9000040014D00020256384F85100CDE90240B1
:105AA000CDE900874B46324651465846FFF7CBF9C1
:105AB0002046FFF79BF8012004B0BDE8F09F284680
:105AC000FFF7EAFB4FF0FF30F6E7F0B585B0DDE910
:105AD0000B640A9DA6B1DCB1542700972663022609
