:020000040800F2
:10000000404A002009030008833700085D2F0008DC
:10001000813700083D0A000825450008000000005F
:10002000000000000000000000000000490200087D
:10003000390B000800000000A502000885390008FF
:1000400023030008230300082303000823030008F8
:1000500023030008230300082303000823030008E8
:1000600023030008230300082303000823030008D8
:1000700023030008230300082303000823030008C8
:1000800023030008710A0008230300080000000091
:100090000000000000000000000000003B0B000812
:1000A00023030008593A000823030008230300082B
:1000B000653A00082303000823030008230300080F
:1000C0002303000823030008230300082303000878
:1000D000230300080D450008194500080000000032
:1000E0002303000823030008230300080000000086
:1000F00000000000000000000000000023030008D2
:100100000000000023030008230300082303000865
:1001100000000000000000000000000000000000DF
:100120007D0A0008230300082303000823030008B6
:100130002303000800000000000000000000000091
:100140000000000000000000000000002303000881
:100150002303000823030008890A0008230300087A
:100160002303000823030008000000000000000033
:10017000000000000000000000000000000000007F
:100180000000000023030008000000000000000041
:10019000230300082303000800F002F800F044F8ED
:1001A0000AA090E8000C82448344AAF10107DA45D2
:1001B00001D100F039F8AFF2090EBAE80F0013F0E0
:1001C000010F18BFFB1A43F001031847AC58000099
:1001D000CC580000103A24BF78C878C1FAD852072A
:1001E00024BF30C830C144BF04680C6070470000B1
:1001F0000023002400250026103A28BF78C1FBD830
:10020000520728BF30C148BF0B607047642900F017
:100210005181782900F08A81002070471FB505F0D0
:10022000ADFB1FBD10B510BD00F039FB1146FFF747
:10023000F5FF04F021FA00F057FB03B4FFF7F2FFDB
:1002400003BC00F05FFB00002C4B19680868B0E8A5
:10025000F04F80F30988BFF36F8F4FF0000080F3F9
:10026000118870470000000008480068006880F3AB
:1002700008884FF0000080F3148862B661B6BFF3BF
:100280004F8FBFF36F8F00DF00BF00BF08ED00E0AE
:10029000DFF80C00016841F470010160704700BF95
:1002A00088ED00E0EFF30980BFF36F8F134B1A68FE
:1002B0001EF0100F08BF20ED108A20E9F04F1060EB
:1002C00009B44FF0500080F31188BFF34F8FBFF394
:1002D0006F8F04F0ABFE4FF0000080F3118809BC73
:1002E00019680868B0E8F04F1EF0100F08BFB0ECB6
:1002F000108A80F30988BFF36F8F704738000020A1
:10030000EFF305807047000009488047094800471F
:10031000FEE7FEE7FEE7FEE7FEE7FEE7FEE7FEE7B5
:10032000FEE7FEE704480549054A064B7047000012
:10033000493A00089901000840440020404A002042
:10034000404600204046002053EA020C00F069803D
:100350002DE9F04B4FF00006002B1FBFB3FA83F5D9
:1003600003FA05F424FA05F65E4012BF1643B2FA0A
:1003700082F502FA05F4C5F120051EBF22FA05FC3C
:1003800044EA0C04203556EA044C4FEA144418BFE2
:10039000641C4FF000084FF00009904271EB030C11
:1003A00039D3002919BFB1FA81F701FA07F6B0FA7B
:1003B00080F700FA07F6C7F120071EBF20FA07FCF6
:1003C00046EA0C062037B6FBF4FCA7EB0507103F06
:1003D00007F01F0BCBF120060CFA0BFB2CFA06F6EC
:1003E00044BFB3460026202FA4BF5E464FF0000B4B
:1003F0005BEA060C08BF4FF0010B19EB0B09ABFBD6
:10040000027C48EB0608C01B06FB02CC0BFB03CCAE
:1004100071EB0C01C1E70B46024641464846BDE878
:10042000F08B13B54FF000004FF00001AFF30080E8
:10043000BDE81C40704700000FB41CB5084B06AA6D
:100440007B4469460090059800F011FA04460020AC
:10045000694600F01FFA20461CBC5DF814FB000042
:100460005104000070B5044685690068C10601D5D5
:10047000302600E02026C00707D070BDD4E9012156
:1004800030469047206A401C20626D1EF6D570BD34
:1004900070B5044685690078C00707D170BDD4E9FE
:1004A000012120209047206A401C20626D1EF6D555
:1004B00070BD00002DE9F041064600241068752942
:1004C000314616A510D0AFF30080002802DA404272
:1004D00013A507E031688A0701D512A502E0490794
:1004E00004D511A5012401E0AFF3008000210A2208
:1004F00006F1240709E0B0FBF2FCB0FBF2F302FBCB
:100500001C00303078541846491C0028F3D123468B
:100510002A463046BDE8F04100F04BB9000000002B
:100520002D0000002B0000002000000070B50446E4
:100530000D4621461068AFF300802188090502D5D9
:100540000F4A7A4402E00E4A7A440E32002104F146
:10055000240305E000F00F060009965D5E54491C77
:100560000028F7D120780023000704D5702D02D091
:1005700009B1022311322046BDE8704000F019B9DC
:10058000EA5400002DE9F05F894604464FF0000A66
:10059000DFF824B1FB44C0F820A02046E16888477A
:1005A00000287DD0252806D0D4E901219047206A73
:1005B000401C2062F1E700255F462046E16888473D
:1005C0002028064607DB312E05D2B81910F8200C7A
:1005D00008B10543F1E7A80701D525F00405C4F8E3
:1005E0001CA00027C4F818A02A2E09D0304603F01A
:1005F000AAFF38B304EB8708303EC8F8186019E04A
:1006000059F8041B204604EB87029161E168884792
:10061000012F064618D1E069002820DA25F02005D0
:100620001DE0D8F8180000EB800006EB40003038E1
:10063000C8F818002046E1688847064603F083FFA3
:100640000028EED1012F0AD02E2E08D12046E168D5
:1006500088477F1C0646022F45F02005C4DBA069B1
:10066000002803DA404245F00105A061E80701D007
:1006700025F01005A6B1A6F14100192802D82036B0
:1006800045F400654A463146204625604D46FFF751
:10069000BDFD60B1012807D0ED1D25F0070000E089
:1006A00007E000F1080978E705F1040975E730462D
:1006B0007AE7206ABDE8F09FC054000010B5431CE3
:1006C00002E010F8011B71B18107FAD14FF001323D
:1006D00002C88C1A8C4314EAC211F9D0C01A0A0657
:1006E00003D0C01E10BDC01A10BD0A0401D0801E68
:1006F00010BD0902FCD0401E10BD10B5203AC0F05C
:100700000B80B1E81850203AA0E81850B1E8185012
:10071000A0E81850BFF4F5AF5FEA027C24BFB1E84F
:100720001850A0E8185044BF18C918C0BDE81040C0
:100730005FEA827C24BF51F8043B40F8043B08BFC9
:100740007047D20728BF31F8023B48BF11F8012B90
:1007500028BF20F8023B48BF00F8012B70474FF03C
:10076000000200B5134694469646203922BFA0E801
:100770000C50A0E80C50B1F12001BFF4F7AF09070D
:1007800028BFA0E80C5048BF0CC05DF804EB8900FE
:1007900028BF40F8042B08BF704748BF20F8022B41
:1007A00011F0804F18BF00F8012B70477047704759
:1007B00070472DE9F0470D4699469246044600F1F0
:1007C00024080168880604D5E06921F01001216041
:1007D00000E00120A84201DD471B00E00027A169DD
:1007E0007A1902EB0900081AA0612078C00602D429
:1007F0002046FFF737FE002608E0D4E901211AF869
:1008000006009047206A401C761C20624E45F4DBAF
:100810002078C0060AD52046FFF724FE06E0D4E97A
:10082000012130209047206A401C2062381EA7F129
:100830000107F4DC07E0D4E9012118F8050090472E
:10084000206A401C2062281EA5F10105F3DC204629
:10085000FFF71EFE2078000602D50220BDE8F087D3
:100860000120FBE701694A1C02610878704700B566
:100870008FB0CDE901310021059105497944CDE9D9
:10088000031011466846FFF77DFE0FB000BD000063
:10089000E5FFFFFF0A6802F8010B0A607047754622
:1008A00000F02CF8AE4605006946534620F00700DC
:1008B000854618B020B5FFF735FDBDE820404FF064
:1008C00000064FF000074FF000084FF0000B21F03A
:1008D0000701AC46ACE8C009ACE8C009ACE8C00907
:1008E000ACE8C0098D46704710B50446AFF30080F0
:1008F0002046BDE81040FFF7A0BC0000004870474C
:10090000E043002001491820ABBEFEE726000200AC
:1009100070470000464910B54A6822F440324A60E8
:100920004A6843681A434A6001684A6822F4807240
:100930004A6001684A68036942EA03224A60016822
:100940004A6822F040724A6001684A6883681A4324
:100950004A6001688A6822F400628A6001688A68D5
:10096000C3681A438A60816A6FF07062D14201687D
:100970008A6822F070628A6001688A680CD0836A93
:100980001A438A6001688A6822F040528A600168CE
:100990008A68C36A1A4301E022F040528A60016803
:1009A0008A6822F002028A6001688A68037E42EA4D
:1009B00043028A6090F82010002901684A680FD02D
:1009C00042F400624A6001684A6822F460424A6068
:1009D00001684A68174C436A04EB43331A4301E049
:1009E00022F400624A600168CA6A22F47002CA6294
:1009F0000168CA6A838B104C04EB03531A43CA6222
:100A000001688A6822F400728A6001688A6890F836
:100A1000303042EA43228A6001688A6822F48062A8
:100A20008A6001688A68406942EA8020886010BD57
:100A30000023014000E0FFFF0000F0FFFEE770B57B
:100A400004464FF6FF7000224AF201050DE0A35C58
:100A500058400023C60702D085EA500000E0400855
:100A60005B1C082BF6DB521C92B28A42EFD370BD9E
:100A7000014800F0EDB90000F4030020014800F047
:100A8000E7B9000034030020014800F0E1B900009C
:100A90009403002001681823CAB2103AB2FBF3F2A3
:100AA000054B6FF30901032A9B5CC36500D9091D3F
:100AB0008165084670470000C059000810B501461E
:100AC00000208B698A6A4FF0C07453B1B3F5005FA0
:100AD00015D072B1012A0CD0022A0AD0032A09D1FA
:100AE00004E01AB1012A06D0022A03D1C96AC90159
:100AF00000D5012010BDC96AA142FAD010BD002A5C
:100B0000F7D0012AF2D0022AF3D0032AF3D010BD85
:100B100030B50468256825F4802525600468636085
:100B20008368402B036803D099600068C26030BDC1
:100B30009A600068C16030BD70474FF4807000F06B
:100B400015BB72B6FEE7000078B50024009490F85B
:100B50003C20012A19D0012280F83C200A68072392
:100B60000568092A13D9EE680A3A02EB420293405B
:100B70009E43EE600B788A680A3B03EB43039A407E
:100B80000368DD682A43DA6010E0022078BD2E6930
:100B900002EB420293409E432E610B788A6803EB7E
:100BA00043039A4003681D692A431A614A681F2358
:100BB000072A13D205686E6B521E02EB8202934025
:100BC0009E436E630A8893B20A79521E02EB820238
:100BD00093400268556B2B43536327E005680D2A49
:100BE00012D22E6BD21F02EB820293409E432E63E1
:100BF0000B790A88DB1F92B203EB83039A400368E8
:100C00001D6B2A431A6311E0EE6A0D3A02EB820271
:100C100093409E43EE620B790A880D3B92B203EB40
:100C200083039A400368DD6A2A43DA621B4B056836
:100C3000194A9D420AD10D68122D07D1556825F435
:100C400000055560556845F48005556005689D426E
:100C50001DD1134D0B68AB4201D0112B17D1536836
:100C600023F480035360536843F40003536009681E
:100C7000A9420CD10B490C4A0968B1FBF2F101EB16
:100C80008101490000E0491E00910029FBD180F854
:100C90003C40002078BD00000023014000200140BE
:100CA000120000103400002040420F0070B5040014
:100CB0004FF0000503D0206C002610B107E00120A2
:100CC00070BD204600F01CF8666484F83C60206C1F
:100CD000C00610D4206C20F4885040F0020020643C
:100CE0002046FFF717FE6664206C20F0020040F0FB
:100CF0000100206400E0012584F83C60284670BDB6
:100D000070B586B0064614216846FFF728FD1D49D8
:100D10003068884233D11C480025016841F4807155
:100D20000160006800F4807005901748143801686D
:100D300041F0010101600068694600F00100059082
:100D400003200090CDE90105104800F01BFA114C7A
:100D50000F48C4E900050015A560C4E90350400030
:100D600060618000A0614011C4E90705204665620A
:100D700000F03EF908B1FFF7E4FEB463A66306B0E5
:100D800070BD0000002001404438024000000240D5
:100D900010640240340300202DE9F0410446876DC1
:100DA00000F0EEFA064694F835000025022806D039
:100DB0008020606584F834500120BDE8F08120680F
:100DC000016821F0160101602068416921F080016D
:100DD0004161206C08B9A06C20B12068016821F045
:100DE000080101602068016821F0010101600CE048
:100DF00000F0C6FA801B052807D920206065032073
:100E000084F8350084F83450D7E720680068C007BC
:100E1000EED194F85C103F208840B860012084F83F
:100E2000350084F834500020C7E790F835100229C7
:100E300003D08021416501207047052180F83510DD
:100E40000068016821F00101016000207047000086
:100E50002DE9F84304464FF00009CDF800906348AF
:100E60004FF41651A56D0068B0FBF1F72E6894F8A9
:100E70005C10082000FA01F131420FD021680A68A5
:100E800052070BD50A6822F004020A6094F85C103D
:100E90008840A860606D40F00100606594F85C10C7
:100EA0004FF0010808FA01F0304208D02168496982
:100EB000090604D5A860606D40F00200606594F8F2
:100EC0005C1004208840304208D0216809688907F6
:100ED00004D5A860606D40F00400606594F85C1073
:100EE00010208840304218D021680968090714D5BD
:100EF000A86020680168490304D50068000308D58C
:100F0000A16C07E00168C90503D4016821F008015C
:100F10000160216C09B12046884794F85C102020BC
:100F20008840304231D021680968C9062DD5A860B3
:100F300094F8350005282068016806D0490347D594
:100F4000006800031DD4616C1CE021F016010160F3
:100F50002068416921F080014161206C08B9A06CD2
:100F600020B12068016821F00801016094F85C104C
:100F70003F208840A86084F8358084F83490216D43
:100F80001FE0E16B09B120468847606D00282BD037
:100F9000606DC00714D0052084F835002068016812
:100FA00021F0010101600098401C0090B84203D874
:100FB00020680068C007F6D184F8358084F8349042
:100FC000E16C002910D001B02046BDE8F04308478D
:100FD0000168C905D5D4016821F01001016084F8C9
:100FE000358084F83490CCE7BDE8F88334000020E5
:100FF0002DE9F041044600F0C3F906465CB1022039
:1010000084F83500002584F834502068016821F008
:10101000010101600DE00120BDE8F08100F0B0F9B0
:10102000801B052805D920206065032084F8350041
:10103000F2E720680068C007F0D1226811682048F4
:101040000140D4E901031843D4E90336334318437C
:1010500063691843A3691843E3691843236A184373
:101060000843616A042903D1D4E90B1319430843E7
:10107000106020684069666A20F0070130460E4320
:10108000012704280CD1A06A0643E06A40B120463B
:10109000FFF714FD20B14020606584F83570BAE791
:1010A000206846612046FFF7F5FC94F85C203F215C
:1010B00091408160656584F835700020ACE70000E0
:1010C0003F8010F02DE9F0410446866D90F8340021
:1010D000002501280DD0012084F8340094F83570E3
:1010E0000020012F07D084F8340002252846BDE8EF
:1010F000F0810220FBE7022784F835706065204606
:10110000FFF706FD94F85C103F208840B06020682F
:10111000016841F016010160206C20B1206801686F
:1011200041F0080101602068016841F0010101609F
:10113000DCE7000070B5044600F022F90546601CAB
:1011400002D004480078044400F01AF9401BA04281
:10115000FAD370BD28000020B0F5807F02D102498B
:10116000012008707047000018000020044910B5E5
:101170000A68024202D00860FFF7EEFF10BD0000CF
:10118000143C01402DE9F84FDFF8B8A100220124FA
:1011900003254FF00F090AF1040BAAF1040E00BF5A
:1011A0000B6804FA02F63340B34273D10F7907F0AB
:1011B0000307012F01D0022F16D187684FEA42089A
:1011C00005FA08FC27EA0C07D1F80CC00CFA08FC59
:1011D0004CEA070CC0F808C04768B7430E79C6F35D
:1011E000001696403E4346600E79F643B6070DD092
:1011F000C768560005FA06FC27EA0C07D1F808C0B4
:101200000CFA06FC4CEA070CC0F80CC00E7906F08C
:101210000306022E10D1D60800EB8608D8F820600D
:1012200057074FEAD76C09FA0CF7BE430F6907FA64
:101230000CF73743C8F8207006684FEA420C05FAED
:101240000CF7BE430F7907F0030707FA0CF7374393
:1012500007604E6816F4403F6DD03B4E376847F448
:1012600080473760366822F0030706F48046009610
:10127000364E07EB060CDCF8086897073F0F09FAB3
:1012800007F826EA0806DFF8C880404503D14FF08A
:1012900000081EE04FE0DFF8BC80404502D14FF06F
:1012A000010816E0DFF8B080404502D14FF0020897
:1012B0000FE0DFF8A880404502D14FF0030808E0B6
:1012C000DFF89C80404502D14FF0040801E04FF068
:1012D000070808FA07F848EA0608CCF80888DAF898
:1012E00000605746D1F804C09E435FEACC2C00D57D
:1012F0001E433E60DBF800605F46D1F804C09E43A9
:101300005FEA8C2C00D51E433E60DEF80060774615
:10131000D1F804C09E435FEA8C3C00D51E433E607A
:10132000084F083F3E68D1F804C09E435FEACC3CBA
:1013300000D51E433E60521C102AFFF431AFBDE8B9
:10134000F88F0000083C0140443802400030014062
:10135000000002400004024000080240000C02406D
:1013600000100240426921EA02030A4043EA0241B6
:10137000816170470AB1816170470904FBE7000091
:1013800001488068704700002800002070B5040004
:1013900025D094F83D00002520B984F83C50204623
:1013A00000F0B8F8242084F83D002068016821F09E
:1013B000010101602068016841F40041016020687A
:1013C000016821F40041016000F006FB4D4A6168AC
:1013D000914201D84C4900E04C49884201D2012099
:1013E00070BD4B492368B0FBF1F15E6826F03F0603
:1013F0000E435E606368934206D94FF49673594377
:101400004FF47A73B1FBF3F12368491C1E6A26F08E
:101410003F06314319626168914210D84900401E6D
:10142000B0FBF1F2521CC2F30B02042A01D20420D9
:1014300022E0B0FBF1F0401CC0F30B001CE0A268FE
:10144000F2B301EBC10303EB0116431EB3FBF6F34A
:101450005B1C43F480431B0549D092B301EBC102EE
:1014600002EB0111401EB0FBF1F0401CC0F30B0079
:1014700040F4804040F400402168CA694CF6FF7394
:101480009A431043C861D4E90710014320680268F9
:1014900022F0C00211430160D4E903010143206836
:1014A000826848F2FF339A4311438160D4E9050111
:1014B00008432168CA6822F0FF021043C86001E0B7
:1014C0000EE016E02068016841F00101016025642A
:1014D000202084F83D00256384F83E50002070BD34
:1014E00001EB4106431EB3FBF6F35B1CB3E701209F
:1014F000C2E701EB4101401EB0FBF1F0401CC0F31C
:101500000B00B7E7A086010080841E0000093D00A3
:1015100040420F0010B586B0044614216846FFF71C
:101520001EF913492068884220D112480021026820
:1015300042F002020260006800F002000590C02044
:1015400000901220CDE901010320039004200490B3
:1015500069460948FFF716FE06481030016841F455
:1015600000110160006800F40010059006B010BD85
:1015700000540040303802400004024002488168B4
:101580000278114481607047280000200B4810B594
:10159000016841F400710160016841F480610160FB
:1015A000016841F480710160032000F09FF80F2072
:1015B00000F006F800F050F8002010BD003C02409A
:1015C00030B50546204887B00024016841F001018C
:1015D0000160006806A900F00100009001A800F079
:1015E000DBF90498B0B100F0F7F9400017494FF06B
:1015F0008042B0FBF1F11648491E026040F2E7322A
:10160000C0E90324C0E90114846101F03FF804003B
:1016100003D015E000F0E0F9E8E70D4801F082F8AA
:1016200004000DD11C2000F033F8102D07D2002249
:1016300029461C2000F03AF80648056000E0012425
:1016400007B0204630BD00004038024040420F0045
:10165000A80600202C0000200C4882B0016841F44C
:1016600080410160006800F4804000900748001F3E
:10167000016841F0805101600068002200F0805054
:1016800000900F21901E02B000F010B844380240C4
:10169000002809DB00F01F02012191404009800071
:1016A00000F1E020C0F8001170470000F0B40E4BCC
:1016B0001B680C46C3F30223C3F10705042D00D9B0
:1016C0000425191D072901D2002300E0DB1E012695
:1016D00006FA05F1491E214099409E40761E1640AB
:1016E0003143F0BC02F01FBF0CED00E0064900F0F2
:1016F000070208684FF6FF03184040EA0220034A39
:1017000010430860704700000CED00E00000FA058F
:101710002DE9F843044600684FF00109C1074FF076
:10172000000601D1400729D5DFF82081C8F868609C
:10173000FFF726FE0746464D05E000BFFFF720FEF7
:10174000C01B022859D828680001F7D4A068217B63
:10175000800140EA0170616808433D4984310860B6
:10176000C8F86890FFF70CFE074604E0FFF708FE94
:10177000C01B022841D828680001F7D520788007CF
:1017800052D533484030016841F080510160006813
:10179000304D00F080500090286840F48070286040
:1017A000FFF7EEFD074604E0FFF7EAFDC01B022845
:1017B00023D82868C005F7D5254D7035286810F462
:1017C000407020D0218A01F4407181421BD02868EA
:1017D000214920F44070C1F800900E60286028680C
:1017E000C00710D0FFF7CCFD064641F2883707E06E
:1017F000FFF7C6FD801BB84202D90320BDE8F8837D
:1018000028688007F4D521691148C1F30122083006
:10181000032A12D0016821F4F81101602868218A96
:10182000C1F30B01084328602078000703D50B495A
:10183000207DC1F8E0010020E0E70268084B22F4B7
:10184000F81219400A430260E8E70000000047422E
:101850000038024000700040400E474200104742EE
:10186000FFFCFF0F2DE9F0470E46050065D0DFF8BD
:101870001481D8F80000F7B200F00700B04207D298
:1018800088F80070D8F8000000F00700B04254D18A
:1018900028683D4C810712D5400703D5206840F4E5
:1018A000E05020602878000703D5206840F46040AD
:1018B00020602068A96820F0F000084320602878A4
:1018C000C0072DD0304968680839012812D0022895
:1018D00013D0032811D00968890700292DDA21685F
:1018E00021F0030101432160FFF74AFD814641F2E7
:1018F000883A0EE009688903EFE709688901ECE797
:10190000FFF73EFDA0EB0901514502D90320BDE8D8
:10191000F0872068696800F00C00B0EB810FEFD110
:10192000D8F80010404601F00701B14207D907700E
:10193000006800F00700B04201D00120E7E72878F6
:10194000400705D52068E96820F4E050084320608E
:101950002878000706D52068296920F4604040EA0D
:10196000C100206000F058F82168084AC1F3031153
:10197000515CC8400649086006480068FFF720FE31
:101980000020C4E7003C024008380240C859000863
:10199000340000202C0000200F2202600C4A136843
:1019A00003F003034360136803F0F00383601368DC
:1019B00003F4E053C36012684FF4E05303EAD20229
:1019C00002610448006800F00700086070470000EA
:1019D00008380240003C0240044805490068096894
:1019E000044AC1F38221515CC84070473400002092
:1019F00008380240D85900080448054900680968B9
:101A0000044AC1F34231515CC840704734000020A1
:101A100008380240D8590008154810B5006810F081
:101A20000C02144813D01449042A0FD0082A0ED1EE
:101A30000F4C241F2268236802F03F025B0207D587
:101A40002068C0F38810A0FB010106E0084610BD25
:101A50002168C1F38811A1FB00010023FEF774FC8B
:101A60002168C1F30141491C4900B0FBF1F010BDF0
:101A7000083802400024F40040787D012DE9F84F39
:101A800004006ED02078DFF84C93C007A9F104055C
:101A90004AD009F104000168C1F38101012908D08D
:101AA0000068C0F3810002280AD1D9F80000400282
:101AB00006D52868800337D560680028E1D033E078
:101AC0006068B0F5803F10D0B0F5A02F286810D026
:101AD00020F480302860286820F480202860606826
:101AE000A8B1FFF74DFC06460DE0286840F48030B1
:101AF000F4E740F480202860F7E700BFFFF740FCE0
:101B0000801B642873D828688003F7D50CE0FFF7A2
:101B100037FC064605E000BFFFF732FC801B642857
:101B2000F0D828688003F7D42078DFF8AC828007EB
:101B30004FF0000A3ED5A748001D016811F00C0FB8
:101B400008D00068C0F3810002280BD1D9F800004A
:101B5000400207D42868800716D5E068012800D124
:101B600012E033E1E068B8B10120C8F80000FFF7E7
:101B700007FC064605E000BFFFF702FC801B0228B9
:101B8000C0D828688007F7D52868216920F0F800B8
:101B900040EAC10028600DE0C8F800A0FFF7F0FBA4
:101BA000064604E0FFF7ECFB801B02281FD82868DC
:101BB0008007F7D42078000722D5864F87486169CF
:101BC000703771B101210160FFF7DAFB064604E0CE
:101BD000FFF7D6FB801B022809D838688007F7D5A5
:101BE0000EE0C0F800A0FFF7CBFB064605E082E060
:101BF000FFF7C6FB801B02287DD838688007F7D422
:101C00002078400768D5DFF8CCB100270BF13C0BFA
:101C1000DBF80000C0000BD4DBF8001041F080516D
:101C2000CBF80010DBF80000012700F08050009096
:101C30006B4E3068C00510D4306840F4807030605E
:101C4000FFF79EFB009005E0FFF79AFB0099401A12
:101C5000022850D83068C005F6D55E4EA0686C36B4
:101C600001280FD00528306810D020F00100306026
:101C7000306820F004003060A068B8B1FFF780FB46
:101C800000900FE0306840F00100F4E740F00400FD
:101C90003060F7E7FFF774FB0099411A41F2883092
:101CA000814266D830688007F4D50EE0FFF768FB04
:101CB000009007E0FFF764FB0099411A41F2883079
:101CC000814256D830688007F4D42FB1DBF8001079
:101CD00021F08051CBF80010A069C8B33D49091D1F
:101CE0000968C1F3810102294AD00228504607D071
:101CF000C8F8600000E03CE0FFF742FB04463BE030
:101D00004746C8F86000FFF73BFB064605E000BF0A
:101D1000FFF736FB801B02282BD828688001F7D4F8
:101D2000D4E907010843A16A2E4A490802EB0141A0
:101D3000626A41EA8211084394F82C1040EA01617A
:101D4000C9F8001001203866FFF71AFB044606E0C8
:101D50003EE000BFFFF714FB001B022809D82868EB
:101D60008001F7D534E000BFFFF70AFB001B022813
:101D700002D90320BDE8F88F28688001F4D427E059
:101D80000128F7D0D9F80000E26900F480019142FF
:101D90001CD1226A00F03F01914217D147F6C07171
:101DA000626A0140B1EB821F10D1A26A4FF0FF338B
:101DB00000F4403103EB5202B1EB024F06D194F82C
:101DC0002C1000F07060B0EB016F01D00120D1E762
:101DD0000020CFE70438024000004742800E47420F
:101DE000007000400000FFFF10B5040002D0607FCB
:101DF00010B106E0012010BD00202077204600F041
:101E000039F8022060772168CA204862216853208F
:101E10004862204601F0C2FC30BB20688168144A49
:101E2000114081602168886862681043D4E9042306
:101E30001A43104388602168E068086120680169DE
:101E4000228941EA02410161204601F0CBFC58B9E8
:101E500021680A6C22F480220A6421680A6CA36952
:101E60001A430A64012161772268FF21516210BD83
:101E7000BFFF8FFF10B586B0044618216846FEF7F5
:101E80006EFC0949206888420CD1022000900002B3
:101E900004906846FFF73CFC08B1FEF752FE034988
:101EA0000120086006B010BD002800403C0E4742EB
:101EB00070B50446007F0B46012819D0012626770D
:101EC00002206077B2B19878D97840EA0145587815
:101ED0001978000240EA413005432168CA2048626F
:101EE000216853204862204601F058FCD0B122E01E
:101EF000022070BD5878C10603D500F0EF000A300B
:101F00005870D87801F03EFC0204587801F03AFC91
:101F100042EA0022987801F035FC0243187842EA40
:101F20004035DAE70748054020684560204601F063
:101F300059FC00B966772268FF21516200212177A0
:101F400070BD00003FFFFF002DE9F0410446007F17
:101F50000D46012823D04FF0010884F81C80022090
:101F600060772068002780684FEA4060D2B100287F
:101F700000DBEF70A878297840EA01466878E978B4
:101F8000000240EA815006432168CA204862216865
:101F900053204862204601F001FCB8B12CE0022039
:101FA000BDE8F081002800DBEF70287801F0EAFB43
:101FB0000204687801F0E6FB42EA0022A87801F00A
:101FC000E1FB0243E87842EA8056DDE70D4806402F
:101FD000206806602068816821F480218160D5E94D
:101FE0000301084321688A6810438860204601F095
:101FF000F9FB08B984F81D802268FF215162277718
:10200000CEE700007F7F7F0070B504460068C1689E
:1020100021F0A001C160FFF7B3F905464FF47A76CD
:1020200007E000BFFFF7ACF9401BB04201D9032025
:1020300070BD2068C0688006F4D5002070BD90F89F
:102040005100704770B5040009D0606A002540B1A6
:1020500025616561A56294F8510040B10CE0012052
:1020600070BD6068B0F5827FF4D0E561F2E784F876
:102070005050204600F044F8022084F851002068B7
:10208000016821F040010160A088218900F482707C
:1020900001F404410843A18901F400610843217C53
:1020A00001F002010843217D01F001010843218B69
:1020B00001F400710843217F01F03801084394F8CE
:1020C000201001F080010843218D01F400510843E4
:1020D00021680860A069042101EA104094F82410E6
:1020E00001F010010843216848602068C16921F4AB
:1020F0000061C1616565012084F85100002070BD58
:1021000010B586B0044614216846FEF728FB134933
:102110002068884220D112480021026842F480528F
:102120000260006800F4805005900D481438026881
:1021300042F001020260006800F001000590E0201A
:1021400000900220CDE901010320039005200490B6
:1021500069460448FFF716F806B010BD003001408C
:1021600044380240000002402DE9F84F0446406820
:102170000025984616460F464FF0040BB0F5827FB7
:1021800001D1A06888B194F85000012818D001202E
:1021900084F85000FFF7F4F8814694F851004FF0AE
:1021A000000A01280ED0022582E084F851B01346BF
:1021B0000A462046CDF8008000F036F9BDE8F88FD9
:1021C0000220FBE7002F72D0002E70D084F851B0AF
:1021D000C4F854A0A763A687E687C4F830A0A4F883
:1021E00034A0A4F836A0C4F840A0C4F844A0A06865
:1021F000B0F5004F09D12068016821F0400101606D
:102200002068016821F48041016020680168490666
:1022100003D4016841F040010160E068D8B139E0C1
:1022200020688168C90709D0007BA16B0870A06B8A
:10223000401CA063E08F401EE0870CE0FFF7A0F891
:10224000A0EB0901414503D3B8F1FF3F03D036E0CD
:10225000B8F1000F33D0E08F0028E1D11DE02068F5
:102260008168C90709D0C068A16B0880A06B801C79
:10227000A063E08F401EE0870CE0FFF781F8A0EB41
:102280000901414503D3B8F1FF3F03D017E0B8F18E
:10229000000F14D0E08F0028E1D14A464146204685
:1022A00001F0B5FA08B120206065606D00B101252C
:1022B000012084F8510084F850A028467EE70325C9
:1022C000F6E72DE9F84F044690F8500000271D4628
:1022D0001646894601280DD04FF0010B84F850B006
:1022E000FFF74EF8804694F85100BA46012804D012
:1022F000022793E00220BDE8F88FB9F1000F73D0F8
:10230000002E71D0032084F85100C4F854A0C4F802
:102310003090A686E686C4F838A0A4F83CA0A4F8BD
:102320003EA0C4F844A0C4F840A0A068B0F5004F97
:1023300009D12068016821F040010160206801682E
:1023400041F48041016020680168490603D40168B6
:1023500041F040010160E068B0F5006F606803D0B3
:1023600030B3012E24D041E008B1012E1CD1206BE6
:1023700021680088C86006E020688168890709D55F
:10238000216B0988C160206B801C2063E08E401E99
:10239000E08609E0FEF7F4FFA0EB0800A84202D3B4
:1023A000681C01D031E07DB3E08E0028E4D120E04C
:1023B000206B21680078087306E02068816889072F
:1023C00009D5216B09780173206B401C2063E08ED6
:1023D000401EE0860AE0FEF7D3FFA0EB0800A8420B
:1023E00003D3681C02D010E017E06DB1E08E002826
:1023F000E3D142462946204601F038FA08B12020B0
:102400006065A06818B106E0FFE7032706E02068D2
:10241000C16880680090606D00B1012784F851B0F8
:1024200084F850A0384666E72DE9F84F044690F846
:10243000500000270A9E1D4692468B464FF0010928
:1024400001280ED0012084F85000FEF799FF804645
:1024500094F85100616801280CD0B1F5827F07D152
:1024600002E00220BDE8F88FA16809B9042801D074
:102470000227C2E0BBF1000F27D0BAF1000F24D031
:102480001DB394F85100042802D0052084F85100AF
:1024900000206065C4F838A0E587A587C4F830B08F
:1024A000E586A5862064606420680168490603D437
:1024B000016841F040010160E068B0F5006F6068BC
:1024C00005D0E8B3012D46D07FE0012795E008B1A3
:1024D000012D39D1206B21680088C860206B801CD9
:1024E0002063E08E401EE0862EE020688168890728
:1024F0000FD5E18E69B1B9F1010F0AD1216B0988BD
:10250000C160206B801C2063E08E401EE0864FF08F
:10251000000920688168C9070CD0E18F51B1C068FB
:10252000A16B0880A06B801CA063E08F401EE08739
:102530004FF00109FEF724FFA0EB0800B04200E0D5
:1025400009E001D3701C50D1E08E0028CDD1E08F7E
:102550000028CAD13FE0206B216800780873206B07
:10256000401C2063E08E401EE0862EE020688168DB
:1025700089070FD5E18E69B1B9F1010F0AD1216B3D
:1025800009780173206B401C2063E08E401EE086BA
:102590004FF0000920688168C9070CD0E18F51B164
:1025A000C068A16B0870A06B401CA063E08F401E48
:1025B000E0874FF00109FEF7E3FEA0EB0800B04210
:1025C00002D3701C01D010E07EB1E08E0028CDD186
:1025D000E08F0028CAD142463146204601F046F934
:1025E00028B101272020606507E0032705E0A068E7
:1025F00018B92068C16880680090012084F85100F3
:10260000002084F8500038462CE7704770470000DF
:1026100070B590F83C20012A2CD0012480F83C4071
:10262000022280F83D2003685A689D6822F07006F7
:102630000A6832435A60104B02689A420ED0B2F1D7
:10264000804F0BD00D4B9A4208D00D4B9A4205D0CB
:102650000C4B9A4202D00C4B9A4204D1496825F0A7
:1026600080031943916080F83D40002180F83C10C0
:10267000084670BD022070BD00000140000400400B
:1026800000080040000C00400040014010B504006C
:1026900003D094F83D0010B107E0012010BD0020E8
:1026A00084F83C00204600F01FF8022084F83D002A
:1026B000211D206801F0DCF9012084F8460084F82F
:1026C0003E0084F83F0084F8400084F8410084F81C
:1026D000420084F8430084F8440084F8450084F8FC
:1026E0003D00002010BD000008B500680B4988427D
:1026F00012D10B48016841F001010160006800221D
:1027000000F00100009005211920FEF7CFFFBDE881
:1027100008401920FEF7BCBF08BD000000000140C2
:102720004438024090F83D10012901D00120704743
:10273000022180F83D100168CA6842F00102CA60B7
:1027400000680E4988420ED0B0F1804F0BD00C4982
:10275000884208D00B49884205D00B49884202D0F4
:102760000A49884204D1816801F00701062903D093
:10277000016841F001010160002070470000014044
:102780000004004000080040000C004000400140F0
:1027900070B5044690F83C000025012817D00126AA
:1027A00084F83C60022084F83D002068826822F0B2
:1027B000770222F47F4282600868502838D00DDC0E
:1027C00020284FD005DC90B3102811D14AE0022018
:1027D00070BD302846D040280AD13BE060282FD079
:1027E00070280DD0B0F5805F03D0B0F5005F12D037
:1027F000012584F83D60002084F83C00284670BD27
:10280000CB68D1E90121206801F07EF92068816858
:1028100041F0770109E0CB68D1E90121206801F09E
:1028200073F92068816841F480418160E1E719E033
:10283000CA684968206801F079F95021206806E0EB
:10284000CA684968206801F082F96021206801F0B7
:1028500065F9CEE7CA684968206801F067F9402148
:102860002068F4E7226801461046F0E7704770B52B
:102870000446006801694FF00005C943890715D473
:10288000C168C943890711D4E91E0161012020777D
:10289000206880698007204602D0FFF7E7FF04E048
:1028A00000F098F8204600F096F825772068016936
:1028B000C943490717D4C168C943490713D46FF006
:1028C00004010161022020772068806910F4407FB4
:1028D000204602D0FFF7CAFF04E000F07BF8204654
:1028E00000F079F8257720680169C943090716D4F3
:1028F000C168C943090712D46FF0080101610420BF
:1029000020772068C0698007204602D0FFF7AEFF1D
:1029100004E000F05FF8204600F05DF825772068BD
:102920000169C943C90617D4C168C943C90613D48C
:102930006FF010010161082020772068C06910F451
:10294000407F204602D0FFF791FF04E000F042F8FC
:10295000204600F040F8257720680169C943C9077F
:1029600008D1C168C943C90704D1891E0161204645
:1029700000F032F820680169C943090609D4C1682A
:10298000C943090605D46FF0800101612046FFF7B5
:102990003CFE20680169C943490609D4C168C9439E
:1029A000490605D46FF040010161204600F01BF894
:1029B00020680169C94389060BD4C168C9438906E7
:1029C00007D46FF0200101612046BDE87040FFF799
:1029D0001DBE70BD704770470068B0F1804F01D1D7
:1029E000FEF7CCBD7047704770477047F8B5016877
:1029F00004460868CA684B6910F00F0F4FF00005D5
:102A000059D003F0010602F49077374365D0C1072F
:102A100005D0D10503D5216C41F0010121644107A6
:102A200005D5D90703D0216C41F00201216481074B
:102A300005D5D90703D0216C41F0040121640107B9
:102A400007D502F02001314303D0216C41F0080189
:102A50002164216C00293AD0800604D5900602D565
:102A6000204601F031FC20684069216CC0F38010E1
:102A7000090700D460B3204601F0F1FB20684069EB
:102A8000400621D52068143050E8001F21F0400195
:102A900040E80012002AF5D1A06BA8B16C4901658D
:102AA000A06BFEF7C2F9002811D0A06B016D01B038
:102AB000BDE8F040084783060FD593060DD52046A4
:102AC000BDE8F84001F000BC2046FFF78EFFF8BDDE
:102AD0002046FFF78AFF2564F8BD266B2023012ED0
:102AE00079D1C60677D5D60675D5086848680090AE
:102AF0004869400640D5A16B086840680004000C96
:102B0000EAD0A28D8242E7D9E085C869B0F5807F1E
:102B10002DD020680C3050E8001F21F4807140E86F
:102B20000012002AF5D12068143050E8001F21F06F
:102B3000010140E80012002AF5D12068143050E865
:102B4000001F21F0400140E80012002AF5D184F86E
:102B50003E30256320680C3050E8001F21F0100142
:102B600040E80012002AF5D1A06BFEF715F9A08D00
:102B7000E18D401A81B229E0A08DE18D401A81B229
:102B8000E08D0028A8D00029A6D020680C3050E89D
:102B9000002F22F4907240E80026002EF5D1206824
:102BA000143050E8002F22F0010240E80026002EE9
:102BB000F5D184F83E30256320680C3050E8002FB2
:102BC00022F0100240E80023002BF5D12046FFF749
:102BD0000BFFF8BDFFE705062BD5150629D594F8A0
:102BE0003D002128F5D1A068B0F5805F01D12069B2
:102BF000B0B1206A411C2162216800784860E08CF5
:102C0000401E0004000CE084E3D12068C16821F07C
:102C10008001C1602068C16841F04001C160D8E70F
:102C2000206A0088C0F308004860206A801C206287
:102C3000E5E74006CDD55006CBD5CA68204622F040
:102C40004002CA6084F83D3000F086F9C1E7000018
:102C5000B941000870B5040004D094F83D00002587
:102C600010B106E0012070BD84F83C50204600F011
:102C700023F8242084F83D002068C16821F4005125
:102C8000C160204601F080FB2068016921F4904179
:102C900001612068416921F02A0141612068C16811
:102CA00041F40051C1602564202084F83D0084F87F
:102CB0003E00002070BD00002DE9F04786B00646BA
:102CC00014216846FDF74BFDDFF828810221D6F874
:102CD00000C00024484803220725484B8F064FF0C8
:102CE00040094FF4806AC4453DD1DFF80CC10CF1B6
:102CF000140CDCF8008048F01008CCF80080DCF8F8
:102D000000C00CF0100CCDF814C0D0F800C04CF08E
:102D1000010CC0F800C0006800F0010005905002EE
:102D20008DE81300CDE9032569461846FEF72AFA17
:102D3000344D3348C5E90294C5E904A4AC61EC61A3
:102D40002C626C62C5E900072846FEF751F908B10C
:102D5000FDF7F7FE7563002205212520AE63FEF71F
:102D6000A5FC252040E0DFF8A080C4453ED1DFF877
:102D700088C00CF1100CDCF8008048F40038CCF866
:102D80000080DCF800C00CF4003CCDF814C0D0F892
:102D900000C04CF0010CC0F800C0006800F0010059
:102DA00005900C208DE81300CDE9032569461846EF
:102DB000FEF7E8F9164D1548C5E90294C5E904A4E3
:102DC000AC61EC612C626C62C5E900072846FEF735
:102DD0000FF908B1FDF7B5FE756300220521262025
:102DE000AE63FEF763FC2620FEF752FC06B0BDE89A
:102DF000F08700000010014030380240000002401F
:102E0000B86402409403002000440040A0600240E7
:102E1000F4030020704700002DE9F843044690F8C1
:102E20003D001F4616460D4620284CD1C5B1BEB107
:102E300094F83C00012846D0012084F83C004FF073
:102E40000008C4F84080212084F83D00FEF798FA7D
:102E5000A6848146E684A068B0F5805F03D004E0D4
:102E60000120BDE8F883206928B12E465FF00005F7
:102E700084F83C800EE00026FAE78021204601F02D
:102E800009FBA0B9AEB116F8010B21684860E08CCF
:102E9000401EE084E08C4B464FF000020097002873
:102EA000EBD14FF04001204601F0F4FA30B103209D
:102EB000D7E735F8020BC0F30800E6E7202084F8D6
:102EC0003D000020CDE70220CBE7000070B50446AE
:102ED00090F83D00202836D191B38AB394F83C0095
:102EE000012830D0012084F83C002162A284E284D1
:102EF00000252564212084F83D00636B1348D863C6
:102F0000636B13481864636B1248D864606B134694
:102F100005652668606B321DFEF7D4F821686FF0F6
:102F20004000086084F83C502068143050E8001FCE
:102F300041F0800140E80012002AF5D1002070BD68
:102F4000FFE70120FBE70220F9E700001342000839
:102F500055420008C941000870477047FEE7F8B5C0
:102F6000044641F080008DF8000017461E46A188F7
:102F700000222068FEF7FEF94FF4FA652B46012285
:102F80006946A069FFF79DF9A069FFF758F8012885
:102F9000FAD12B4632463946A069FFF792F9A0696B
:102FA000FFF74DF80128FAD1A18801222068FEF729
:102FB000E1F9F8BD10B51A2100F0A7F8A43810BD4A
:102FC00070B50C460546012100F09FF8024644B159
:102FD000012C0BD0032C0FD0052C13D0062C17D0AE
:102FE0001BE0002002F0F802E86116E0012002F088
:102FF000F802521CE86110E0032002F0F802D21C33
:10300000E8610AE0052002F0F802521DE86104E0E0
:10301000062002F0F802921DE8612846BDE87040E3
:10302000012100F0EAB970B504460021FFF7C8FF9E
:103030000A2001F097FF0121204600F066F80546BE
:103040000A20FEF777F845F080020121204600F0C3
:10305000D4F9642001F086FF2046216A00F0FAF8D6
:1030600094F82A10204600F049F994F82B102046D5
:1030700000F025F923220C21204600F0BEF920465D
:1030800000F066F994F82410204600F041F9FF2280
:103090001F21204600F0B1F994F8250094F826107D
:1030A000000100EB4100C2B21D21204600F0A5F94D
:1030B000204600F0A3F8208D2021020A204600F0CF
:1030C0009CF994F828202121204600F096F940210F
:1030D000204600F01AF840F03F024021204600F060
:1030E0008CF901212046FFF76BFF0120E0610A20E7
:1030F00001F038FF4221204600F007F8122802D0E4
:103100004FF4CA7070BDC82070BD0EB501F07F01CC
:103110008DF8081001210A46009101AB02A900F0C8
:1031200003F89DF804000EBD2DE9F0470E46154644
:10313000044681889846DDF8209000680022FEF75A
:1031400019F94FF4FA673B462A463146A069FFF762
:10315000B8F8A069FEF773FF0128FAD13B464A464A
:103160004146A069FFF700F8A069FEF768FF012853
:10317000FAD1A1882068BDE8F0470122FEF7FAB82D
:103180002DE9F04100250E460746144628462946FB
:1031900001E03154401CA042FBDB01213846FFF71F
:1031A0000FFF12213846FFF7B0FF40061FD5FF2260
:1031B0001221384600F021F913213846FFF7A5FF08
:1031C000054610213846FFF7A0FF02460D2138467C
:1031D00000F013F9AC4200D22546002405E000219E
:1031E0003846FFF792FF3055641CAC42F7DB0521EF
:1031F0003846FFF7E5FE2846BDE8F08110B594B0EB
:103200000446502212496846FDF777FA94F82410D4
:103210000120884002F047FB41EC100B94F8250098
:10322000694601EBC00090ED001B51EC100B53EC14
:10323000112B02F0B1F902F007FB102801DD01218A
:1032400000E00021204600F025F814B010BD000079
:10325000E059000870B50546C8044411C4F307429C
:103260000621284600F0C9F8052001F07BFEC4F3D2
:1032700007220721284600F0C0F8052001F072FE61
:10328000E2B20821284600F0B8F8BDE870400520F9
:1032900001F068BE70B50C4605462621FFF735FFE4
:1032A00014B140F0080201E000F0F70226212846A0
:1032B00000F0A3F8BDE870400A2001F053BE10B53D
:1032C0002D2901D22D2105E0F02901D9F02106E0B8
:1032D000782904D805222D3991FBF2F103E00A2266
:1032E0001E31B1FBF2F1C9B22031CAB20B2100F09C
:1032F00084F8BDE810400A2001F034BE10B50A463B
:10330000092100F07AF8BDE810400A2001F02ABE39
:1033100070B50C4606460C2901DD0C2402E0072C92
:1033200000DA07241E21FFF7F0FE05460A2001F00F
:1033300019FE64F31F15EAB21E21304600F05DF855
:103340000A2001F00FFE3046BDE87040FFF756BF7F
:1033500010B504461E21FFF7D8FE40F007021E21DB
:10336000204600F04AF8BDE810400A2001F0FABDFE
:103370000521FFF725BE2DE9F0410F461C461646F4
:1033800080460121C569FFF71BFE0E214046FFF76D
:10339000BCFE02460D21404600F02FF832462221A5
:1033A000404600F02AF833463A4600214046FFF7EF
:1033B000D6FD03214046FFF703FE12214046FFF7EA
:1033C000A4FE00070BD5FF221221404600F015F89D
:1033D00029464046FFF7F4FD0120BDE8F081641E58
:1033E0002404240C03D0012001F0BCFDE5E72946AC
:1033F0004046FFF7E5FD0020EFE70EB541F0800104
:103400008DF8081001218DF804200A46009101ABC7
:1034100002A900F001F80EBD2DE9F0470E46154651
:10342000044681889846DDF8209000680022FDF768
:10343000A1FF4FF4FA673B462A463146A069FEF7E2
:1034400040FFA069FEF7FBFD0128FAD13B464A4642
:103450004146A069FEF735FFA069FEF7F0FD01289F
:10346000FAD1A1882068BDE8F0470122FDF782BFAC
:103470007FB500251A4800950195029517490395D7
:10348000016001244FF480310461C0E90115047624
:1034900080F820501349C0E90A150226C661C560AC
:1034A00080F830404461FDF701FC08B172B6FEE7D8
:1034B00006200095CDE9014069460948FDF744FB27
:1034C00008B172B6FEE7694605480196FDF73CFB78
:1034D000002801D072B6FEE77FBD00000020014049
:1034E000500100200100000F154808B5016841F4A3
:1034F00080010160016801F480010091016841F4DC
:10350000001101600068002200F400100090052105
:103510001120FEF7CBF81120FEF7BAF800220521A2
:103520003820FEF7C3F83820FEF7B2F80022052154
:103530004620FEF7BBF8BDE808404620FEF7A8B8D5
:10354000303802402DE9F04387B014216846FDF77A
:1035500006F93B480024016841F00401016001685C
:1035600001F004010591016841F0800101600168EA
:1035700001F080010591016841F0010101600168DD
:1035800001F001010591016841F00201016000684C
:103590002C4F00F002004FF4005505900022294600
:1035A0003846FDF7E7FEDFF8A08000224FF4E04147
:1035B0004046FDF7DFFE0122DFF89090D60231464B
:1035C0004846FDF7D7FE012251024046FDF7D2FEE4
:1035D00000950125CDE90154694638460394FDF76D
:1035E000D1FD4FF4E4400090CDE9015469464046D6
:1035F0000394FDF7C7FDE803CDE9000469464046A2
:103600000294FDF7BFFD280200904FF48810CDE929
:10361000010469464846FDF7B5FD0096CDE9015421
:10362000694648460394FDF7ADFD002205211720A9
:10363000FEF73CF81720FEF72BF807B0BDE8F08343
:1036400030380240000802400004024000000240FE
:1036500010B586B014216846FDF781F81B48002498
:1036600019490594C0E900147F218160FF21C0E958
:10367000031444618461FEF7B7FB08B172B6FEE73C
:103680008DF800408DF801408DF80240039401222E
:1036900069460E480494FEF757FC08B172B6FEE77F
:1036A00001208DF814008DF815008DF816000246E3
:1036B0008DF8174005A90548FEF7FAFB002801D050
:1036C00072B6FEE706B010BD00280040EC010020F5
:1036D0000F4810B50D4901604FF48271416000211F
:1036E0008160C1604FF400720161C0E905121022CF
:1036F000C0E90721416281620A21C162FEF7A2FC92
:10370000002801D072B6FEE710BD00000030014075
:103710000C02002010B586B00024184800940194D3
:1037200002940394049414490594016042F20F71C9
:10373000C0E9011440F2E731C0E903148021C0E977
:103740000541FEF7A3FF08B172B6FEE74FF48050C3
:10375000009069460948FFF71BF808B172B6FEE70A
:10376000049404A905480594FEF752FF002801D0EF
:1037700072B6FEE706B010BD0000014064020020F2
:10378000FEE7FEE7002103E0491C0A38C9B2C0B2D7
:103790000A28F9D2090740EA116070472DE9F04183
:1037A000044600680025C168490618D4C16841F084
:1037B0008001C160FDF7E4FD06464FF47A780427E6
:1037C00007E000BFFDF7DCFD801B404501D96777AE
:1037D00001252068C068400601D4002DF2D028469B
:1037E000BDE8F08170B5044600680025C16821F08D
:1037F0008001C16020688068800606D42046FEF7FC
:1038000003FC10B1042060770125284670BDF8B58F
:10381000044640684FF48273984221D1A0684FF467
:103820008065B0F5004F01D0A8420AD12068066833
:1038300026F0400606606068984211D1A068A84250
:103840000ED000920B4600228021204600F03AF86C
:10385000002804D0606D40F0200060650320F8BDB2
:1038600000920B4600220121EFE7000038B5044624
:103870001248134B0068B0FBF3F04FF47A735843CF
:1038800000906068B0F5827F0DD10B460092002257
:103890008021204600F016F870B1606D40F02000E5
:1038A0006065032038BD009830B1401E009020684C
:1038B0008068C0430006F6D5002038BD34000020E3
:1038C00000366E012DE9F8431E46914688460446AF
:1038D000089DFDF755FD401B351AFDF751FD0746C4
:1038E00025480068C0F3CB30684338E0701C37D0FF
:1038F000FDF746FDC01BA84203D215B1009860B386
:103900002CE02068416821F0E00141606068B0F57A
:10391000827F0BD1A068B0F5004F02D0B0F5806F68
:1039200004D12068016821F040010160A06AB0F56F
:10393000005F09D12068016821F40051016020680E
:10394000016841F400510160012084F85100002019
:1039500084F850000320BDE8F8830025401E009045
:103960002068816838EA010004D000214945BDD1B2
:103970000020F0E70121F9E734000020012000F0E9
:1039800077FFFBE710B5502080F31188BFF34F8F0E
:10399000BFF36F8F01F0B6FC18B104494FF08050AF
:1039A0000860002080F3118810BD000004ED00E0E5
:1039B00030B593B030216846FCF7D1FE14210CA835
:1039C000FCF7CDFE1E480025016841F080510160E2
:1039D000006800F0805011901A48016841F440419D
:1039E00001600068022400F440401190092000901A
:1039F0004FF4803001900120CDE905048005079047
:103A00000C2008906020CDE9090404200B90684642
:103A1000FEF734F808B172B6FEE70CA90F2081E872
:103A200031004FF48050CDE90F0503210CA8FDF7BC
:103A300019FF002801D072B6FEE713B030BD0000B8
:103A400040380240007000400248016841F47001B3
:103A50000160704788ED00E00148FEF708BF0000F4
:103A6000640200200148FEF702BF0000A806002003
:103A7000F0B502681D4B1E4C9F031E4D1E4E984212
:103A800007D0B84205D0A04203D0A84201D0B0422E
:103A900004D122F0700C4A6842EA0C02984210D01D
:103AA000B8420ED0A0420CD0A8420AD0B04208D0F2
:103AB000124CA04205D0124CA04202D0114CA042A0
:103AC00003D122F44074CA6822434C6922F0800278
:103AD000224302608A68C2620A688262984201D107
:103AE0000969016301214161F0BD0000000001404E
:103AF0000004004000080040000C0040004001406D
:103B0000004401400048014010B5846842EA0322A5
:103B100024F47F440A432243826010BD826822F06D
:103B200070020A4342F007018160704710B5036AD2
:103B3000046A24F001040462846924F0F00444EA75
:103B4000021423F00A020A438461026210BD10B518
:103B5000036A23F0100303628369046A23F4704349
:103B600043EA023224F0A00343EA011182610162B8
:103B700010BD0000C6B0DFF8F8A0DFF8F8904FF0F5
:103B8000000B4FF0020803276C46AA208DF80000B6
:103B900055208DF8010003258DF802B00021534611
:103BA00001EB410000EBC10003EB800292F8200022
:103BB00060556D1CA8B292F824502554401C85B263
:103BC0005FF0000004EB050C52F820602D1D401C36
:103BD000C0B2CCF80060ADB20828F3D3491CC9B21A
:103BE0000329DDD31422244940A8FCF786FD0020D8
:103BF00040A901EB800362192D1D401C1B68C0B257
:103C00001360ADB20528F4D3B9F80200401C0004DB
:103C1000000CA9F8020029D0B9F800106422514321
:103C2000B1FBF0F161556D1CA9B25A226054491CD8
:103C30008EB2F01B85B204F80850E019294600F056
:103C4000A7FCED1CA9B26846FCF7F9FEA055761C4E
:103C5000B1B2000A6054491C8AB269460748FFF7AE
:103C600035F94FF4FA7001F07DF98EE70021D9E7BC
:103C7000CC00002024000020AC590008F0020020F5
:103C8000084DEC1E00F090FC2078295C01F05EFCF1
:103C90002078401C00F007002070052001F062F938
:103CA000F0E70000030000208B4C88B04FF0030BBE
:103CB0004FF000080126002506FA05F0A0706420E8
:103CC00001F050F96D1CEDB2082DF5D35FF007053A
:103CD00006FA05F0A070642001F044F96D1E6DB283
:103CE000002DF5DA00254FF0FF09474684F80290D1
:103CF000C82001F037F9B846A770C82001F032F9A2
:103D00006D1CEDB2052DF1D300252F4606FA07F004
:103D10002843C5B2A570962001F024F97F1CFFB29C
:103D2000082FF3D35FF0070706FA07F08543A57065
:103D3000962001F017F97F1E7FB2002FF4DA0025DC
:103D4000C5F1070206FA05F006FA02F10843A07071
:103D5000962001F007F96D1CEDB2042DF0D300257B
:103D600055274FF0AA09A770C82001F0FBF884F886
:103D70000290C82001F0F6F86D1CEDB2042DF2D3CC
:103D800000255F4607FA05F0A070962001F0EAF8DA
:103D90006D1CEDB2062DF5D95FF0050507FA05F0AB
:103DA000A070962001F0DEF86D1E6DB2002DF5DAE0
:103DB0005FF00005C5F1070206FA05F006FA02F108
:103DC0000843A1780843A070962001F0CBF86D1C41
:103DD000EDB2042DEED30325C5F1070206FA05F076
:103DE00006FA02F10843A1788143A170962001F000
:103DF000B9F86D1E6DB2002DEEDA38A10025D1E9BB
:103E0000000103AFCDE90301785DA070962001F0B9
:103E1000A9F86D1CEDB2082DF6D300254FEA050771
:103E2000C7F1070106FA07F006FA01F2104328432A
:103E3000C5B2A570962001F095F87F1CFFB2042F43
:103E4000EED30327C7F1070106FA07F006FA01F2DD
:103E500010438543A570962001F084F87F1E7FB241
:103E6000002FEFDA1FA0002700680DF1140A0DF1F2
:103E7000040905901AF80700A070C82001F072F834
:103E800019A00025D0E90010CDE9011019F80500AE
:103E9000A070C82001F066F86D1CEDB2052DF5D3B9
:103EA0005FF00005C5F1070106FA05F006FA01F218
:103EB0001043A070C82001F055F884F802806420F7
:103EC00001F050F86D1CEDB2042DEBD37F1CFFB256
:103ED000042FCFD3EFE600000000002003060C18EB
:103EE0003060C08181422418182442810000000003
:103EF000CAB000F08BFBEB464FF4FA7900267D4800
:103F00004FF0000A554610F806807B480188491C8E
:103F100001807A48FFF72CFA082001F023F878A0F6
:103F20006423006847908DF81D81042247A97348D7
:103F3000FFF721FA2B46424672A111A8FCF77CFA42
:103F400011A8FCF7BBFB82B2322311A97948FEF716
:103F500063FF01F0D1F9074678E0774C207800281C
:103F600071D000F087FF0020207000F0A3FF4022F6
:103F700069466248FFF704F9040064D05F48FFF720
:103F800019F801465B4881604FF400516B48FDF71A
:103F9000E9F99DF80000AA28E9D10BEB040010F81C
:103FA000010C5528E3D1282CE1D39DF8011041459F
:103FB000DDD19DF802002228D9D1262CD7DDBDF80D
:103FC000250041BA439124210BF1010000F0C2FA0F
:103FD00043998842CBD1032100203AAD5B465A1861
:103FE000091D126845F82020401C0828F7DB5D5C9D
:103FF000491C40461BF801A000F02CFC070019D416
:1040000000F038FF07EB470000EBC7013B482022D8
:104010002C3000EB81073AA93846FCF76EFB07F815
:10402000205F344887F801A08068786001203872EA
:1040300000F040FF2F48224669468368404600F062
:1040400083FE4AE0FFE7052000F08CFF01F054F901
:10405000C01B484581D343466A1C39A125A8FCF7FB
:10406000EBF925A8FCF72AFB82B21E2325A93148CB
:10407000FEF7D2FE502000F075FF6D1C032DFFF6F9
:1040800048AFBAF1000F28D1364842460188491C92
:10409000018035A111A8FCF7CFF911A8FCF70EFBA0
:1040A00082B21E2311A92348FEF7B6FE404600F057
:1040B000D1FB040011D400F0DDFE04EB440000EB62
:1040C000C4020E4800212C3000EB820080F828103A
:1040D0006FF07E01416200F0EDFEC82000F042FF6B
:1040E000761C032EFFF40BAF4FF4FA6000F03AFF9A
:1040F00004E700000C00002026000020A0000020A3
:10410000AA0000554D41535445523A2052657175ED
:104110006573742073656E7420746F204E4F444530
:104120002025303258202872657472793D25642923
:104130000D0A0000AC020020180000200008024018
:104140004D41535445523A2052657472792025648A
:1041500020666F72204E4F444520253032582E2E57
:104160002E0D0A00240000204D41535445523A20A0
:104170004E4F20524553504F4E53452046524F4DBF
:10418000204E4F44452025303258210D0A000000B2
:10419000084C4FF47A75607840F003006070284650
:1041A00000F0E0FE607820F003006070284600F028
:1041B000D9FEF0E70000002010B5806B0021C1851A
:1041C000C184FEF712FC10BD70B5846B2068406995
:1041D00094F83D10C0F3C0100025212904D118B176
:1041E000E584204600F062F82068406994F83E10AB
:1041F000C0F38010222904D118B1E585204600F0D3
:104200002EF8206C40F0100020642046FEF7EDFBF5
:1042100070BD10B50146806B09680968C90516D4E0
:104220000021C1840168143151E8002F22F080027E
:1042300041E80023002BF5D101680C3151E8002F33
:1042400042F0400241E80023002BF5D110BDFEF7FB
:1042500083FE10BD10B5806BFEF77FFE10BD0168B8
:104260000C3151E8002F22F4907241E80023002B1A
:10427000F5D10168143151E8002F22F0010241E824
:104280000023002BF5D1016B012909D101680C3104
:1042900051E8002F22F0100241E80023002BF5D155
:1042A000202180F83E1000210163704701680C3125
:1042B00051E8002F22F0C00241E80023002BF5D185
:1042C000202180F83D10704708B590F83E10222953
:1042D00001D0022008BD82684FF480539A4201D178
:1042E000016921B1816A9A421BD04AB10AE0026891
:1042F000816A5268C2F308020A80816A891C08E058
:10430000026972B10268526802F07F020A70816A23
:10431000491C8162C18D491E0904090CC18503D065
:1043200019E002685268F1E70168CA6822F02002C9
:10433000CA600168CA6822F48072CA6001684A696A
:1043400022F001024A61202180F83E10016B012910
:1043500003D0FEF75FFD002008BD00210163016866
:104360000C3151E8002F22F0100241E80023002B0D
:10437000F5D101680A68D20602D50A684968009139
:10438000818DFEF731FBE6E770B5044600680169F0
:10439000E26821F44051114301612169A068E2699A
:1043A00008436169114308432168CA6849F20C63F4
:1043B0009A430243CA6020684169A26921F44071AE
:1043C0001143416131492068884202D03049884216
:1043D00002D1FDF711FB01E0FDF7FEFAE2690023CF
:1043E000192164253226B2F5004F626828D0A0FB5F
:1043F0000101930F9200FBF7A7FF0146B0FBF5F018
:104400006FF01802504301EB800006EB0010B0FB88
:10441000F5F000F0F002B1FBF5F002EB0012B1FB99
:10442000F5F06FF01803584301EB800006EB001025
:10443000B0FBF5F000F00F0021681044886070BDFB
:10444000A0FB010192185B41FBF77EFF0146B0FB28
:10445000F5F00201B1FBF5F06FF01803584301EBE2
:10446000800006EBC000B0FBF5F000F0F80002EBB6
:104470004002B1FBF5F0584301EB800006EBC000B1
:10448000B0FBF5F000F00700D6E700000010014097
:10449000001401402DE9F041984617460E460446A7
:1044A000069D27E0681C25D02DB1FCF769FFA0EB25
:1044B0000800A8421ED920680C3050E8001F21F4E3
:1044C000D07140E80012002AF5D12068143050E87D
:1044D000001F21F0010140E80012002AF5D1202040
:1044E00084F83D0084F83E00002084F83C0003205E
:1044F000BDE8F0812068006836EA000004D00020A2
:10450000B842CFD00020F3E70120F9E70148FEF7D9
:104510006DBA0000AC0200200148FEF767BA000047
:10452000F0020020FEE70907090E002804DB00F175
:10453000E02080F80014704700F00F0000F1E02048
:1045400080F8141D704730380A2801D201207047C6
:1045500000207047F0B505464FF6FF742046002254
:1045600041F2210611E0AB5C80EA0320002307043E
:1045700003D586EA400080B201E004EA40005B1CFB
:10458000DBB2082BF3D3521C92B28A42EBD3F0BDBC
:1045900010B5002304E0C45C5440C4545B1C9BB2BF
:1045A0008B42F8D310BD000030B5154800680028D4
:1045B00000DA404282B21348882101709221417092
:1045C0008170CF21C170BF2101716421B2FBF1F371
:1045D0000A21B3FBF1F401FB14340B4B1C5D447155
:1045E000B2FBF1F4B4FBF1F501FB15441C5D8471E1
:1045F000B2FBF1F401FB1421595CC17130BD000024
:1046000014000020030000208659000800B58BB07C
:10461000684600F003F92C2269461348FCF76DF850
:104620001148124902C0491520F8041B104902C064
:10463000CA1402804160891501810E49C16040F2AF
:10464000B311416107210176417601218176FF2175
:1046500081776421C177082181830BB002485DF81E
:1046600004EBFEF7E0BC0000A000002000040240C4
:10467000000002400C02002047488AB0016841F463
:1046800070010160BFF34F8FBFF36F8F03220021D2
:10469000012000F073FD414D6860FCF777FFFFF7E4
:1046A00087F9FEF74FFFFEF71FFFFEF7E1FEFFF76A
:1046B0000FF83C483A494FF4E13600240160C0E964
:1046C00001640C27C460C0E904478461C461FEF73B
:1046D000C1FA08B172B6FEE7344833490160344983
:1046E000C0E901144FF48041C0E903414461846191
:1046F000C4610462FCF74AFE08B172B6FEE7FEF739
:10470000A7FFFFF707F827482A4944300160C0E9AE
:104710000164C460C0E904478461C461FEF79AFA89
:1047200008B172B6FEE70126CDE9006477020023E6
:104730003A4621A1234800F087FDCDE9006400231B
:10474000802221A1234800F07FFDCDE900640023F1
:10475000802221A1244800F077FDCDE900640023E8
:10476000802222A1244800F06FFDCDE900640023DF
:104770003A4622A1244800F067FD00F019FC1C22F3
:10478000224902A8FBF7B9FF002102A800F07CF83B
:10479000A86000F074F8FEE788ED00E01800002043
:1047A00000100140AC02002000540040980100209D
:1047B000A0860100004400405461736B4D61737426
:1047C00065720000F13E00085461736B4869656EC4
:1047D00054686900813C00085461736B48696575D1
:1047E000556E674C65640000A93C00085461736B0A
:1047F00052656C6179000000914100085461736B4F
:104800004461746100000000753B00089059000885
:1048100001460020842900D0C81C704700B58BB029
:1048200040F2B111089107218DF824108DF8251060
:1048300001218DF82610FF218DF82A1064218DF8B2
:104840002B100821ADF828102C226946FBF755FFE4
:104850000BB000BD0146054A0020135C8B4204D01A
:10486000401C0328F9D34FF0FF3070470C000020A4
:1048700010B500B9012000F075FB002010BD10B587
:1048800000F096FB002010BD7FB50D46044641693F
:10489000B0F9080081B1A16971B1FFF7B9FFD4E99E
:1048A00005128DE80700D4E900102B46226900F0BC
:1048B000F8FC039004B070BDFFF7AAFF03A9CDE98F
:1048C0000001208A2B4682B2D4E9001000F0BCFC23
:1048D000012801D00020EDE70398EBE72DE9F04136
:1048E000184C0F460546E6682068001D00F072FA75
:1048F00038B9206890F82C10012088402169814344
:104900002161681C07D137B12168BDE8F0410E482C
:10491000091D00F0A3BA20683544B54245602168FE
:1049200005D2A06BBDE8F041091D00F07FBA606BB5
:10493000091D00F07BFAA06A854200D2A562BDE89D
:10494000F081000038000020CC0700202DE9F04164
:10495000054600F08FFA2E4CA068401CA06020682D
:104960002C4F10B1606940B32DE02560A06801288C
:1049700029D1002606EB860007EB800000F048FAFC
:10498000761C072EF6D323488C3000F041FA2148DC
:10499000A03000F03DFA1F48B43000F039FA1D484D
:1049A000C83000F035FA1B48DC3000F031FA194805
:1049B0008C3060631430A06305E02068E96AC06A47
:1049C000884200D82560606A401C6062E96A012064
:1049D000226988401043206101EB810007EB8000D1
:1049E000291D00F03BFA00F065FA606900280CD040
:1049F0002068E96AC06A884207D207494FF08050B0
:104A00000860BFF34F8FBFF36F8FBDE8F0810000E8
:104A100038000020F006002004ED00E010B5044648
:104A200090F8510058B101280CD002280FD0502026
:104A300080F31188BFF34F8FBFF36F8FFEE7206BBA
:104A400000F04CFA2046BDE8104000F047BA10BD17
:104A500010484FF47051420706D0C01D0D4920F098
:104A60000700411AC1F570510B4A00230144C2E905
:104A700000030839183A21F0070111604B600B6000
:104A80000B1AC0E9001393604FF00040536050616F
:104A900070470000E00700208C000020144E154CE9
:104AA000A6F1C8074FF08058DFF84C9012E000BF25
:104AB00000F0E0F9F068C568281D00F08BF9A068E7
:104AC000401EA0606068401E606000F0F3F9284658
:104AD000FFF7A4FF60680028EAD138680128F9D9F7
:104AE000C9F80080BFF34F8FBFF36F8FF2E700006C
:104AF000B80700203800002004ED00E003460098CD
:104B000029B10260C0E90F31012100F059BB0060FA
:104B1000F8E72DE9F0479A46DDE9098481466FF010
:104B20000303206B03EB82021044089E20F007076A
:104B3000780707D0502080F31188BFF34F8FBFF361
:104B40006F8FFEE7002561B1002023180A5C83F80F
:104B500034200A5C12B1401C1028F6D384F843506C
:104B600001E084F83450072E00D30626E662C4E93B
:104B70001165201D00F057F904F1180000F053F9F9
:104B80002461C6F107006462A061E56484F85050B6
:104B900052464946384600F0C1F82060B8F1000F8F
:104BA00001D0C8F80040BDE8F087000030B51149D9
:104BB00000E011460A688242FBD34B685C188442CD
:104BC00003D1406818444860084643681C18944262
:104BD00009D1084C183C2468A24209D052681A44F2
:104BE00042600A6812680260814200D0086030BDED
:104BF0000460F9E78C0000200648416B096829B180
:104C0000416BC968C9684968816270474FF0FF31DC
:104C1000FAE700003800002008484068401C4FF0C8
:104C2000500080F3118804D0BFF34F8FBFF36F8F14
:104C3000FEE7BFF34F8FBFF36F8FFEE794000020B6
:104C40002DE9F0410546002700F0E8F9324E3068C2
:104C500008B9FFF7FDFE706905424ED1C5B30835AE
:104C600068070ED005F00700C0F10800054468078A
:104C700007D0502080F31188BFF34F8FBFF36F8FA1
:104C8000FEE72DB37068854237D8234818300146B7
:104C90000C6801E020460C466168A94202D22168F6
:104CA0000029F7D131688C4227D00768216801605C
:104CB00060680837411B10290FD96019420708D0D6
:104CC000502080F31188BFF34F8FBFF36F8FFEE743
:104CD00013E041606560FFF769FF61687068401A22
:104CE0007060B268904200D2B060706901430020E9
:104CF000C4E90001F068401CF06000F0A3FB7807F5
:104D000007D0502080F31188BFF34F8FBFF36F8F10
:104D1000FEE73846BDE8F0817400002010B5031F9F
:104D20004FF080741C601B1F21F001011960191FD6
:104D3000044B0B6014390A60091F6FF002024438FB
:104D40000A6010BD194C00082DE9F041B2B00F46C1
:104D500002466E469846304613A1FBF76DFB0446AB
:104D6000032530197A5D13A1FBF766FB6D1C044423
:104D7000232DF6DB97F8243097F8232030190FA164
:104D8000FBF75AFB2044304442460FA1FBF754FB8B
:104D90006846FBF793FC82B2322369460C48FEF763
:104DA0003BF832B0BDE8F081414120253032582037
:104DB00032322000253032580000000025303258B1
:104DC00025303258000000002025640D0A00000044
:104DD000AC020020D0E9013201699A60D0E90123D8
:104DE0005A604A68824201D182684A6000220261A8
:104DF0000868401E0860086870470000034B0360A5
:104E000003F15400086080201060704754040020B3
:104E100000F108014FF0FF32C0E90112C1600161E9
:104E200000210160704700210161704730B50B68B7
:104E30005A1C02D000F1080202E0026904E0224696
:104E4000546825689D42FAD953684B6099608A601E
:104E5000516008610168491C016030BD42684A60C8
:104E600093688B6093685960916008610168491C80
:104E700001607047502080F31188BFF34F8FBFF35C
:104E80006F8F0A494868401C486001280CD10848C7
:104E9000006810F0FF0F07D0502080F31188BFF397
:104EA0004F8FBFF36F8FFEE7704700009400002024
:104EB00004ED00E00849486828B1401E486001D16F
:104EC00080F311887047502080F31188BFF34F8F13
:104ED000BFF36F8FFEE700009400002070B500283C
:104EE0002AD0164DA0F1080460686969084207D10C
:104EF000502080F31188BFF34F8FBFF36F8FFEE711
:104F000022683AB1502080F31188BFF34F8FBFF36E
:104F10006F8FFEE78843606000F080F86068696822
:104F2000084468602046FFF741FE2869401C28615C
:104F3000BDE8704000F086BA70BD0000740000202B
:104F40004FF0E02000210161816105494FF47A7240
:104F50000968B1FBF2F1491E416107210161704707
:104F60003400002010B5020014D00F48006B38B197
:104F7000502080F31188BFF34F8FBFF36F8FFEE790
:104F800000F04CF800211046FFF7A8FC00F05AFA98
:104F9000002807D105494FF080500860BFF34F8FBC
:104FA000BFF36F8F10BD00003800002004ED00E05B
:104FB00010B586B00024039405AA04A903A804949C
:104FC000FFF71CFFDDE903010094CDE90110002388
:104FD0000EA11048059A00F064F90F490028C86234
:104FE00011D0502080F31188BFF34F8FBFF36F8F24
:104FF0004FF0FF30886201204861CC6006B0BDE808
:10500000104000F041B806B010BD000049444C45C6
:10501000000000009D4A0008380000200248016B93
:10502000491C016370470000380000201448016BE0
:1050300011B10121C16170470021C1610169B1FA5B
:1050400081F1C1F11F0101EB81020E4951F82230BB
:105050006BB101EB820101F108034A6852684A60B2
:105060009A4201D152684A60D1680160704750206D
:1050700080F31188BFF34F8FBFF36F8FFEE70000FF
:1050800038000020F00600201CB537480168374A78
:10509000914207D1502080F31188BFF34F8FBFF3A7
:1050A0006F8FFEE700683149491E884207D15020C2
:1050B00080F31188BFF34F8FBFF36F8FFEE72C494A
:1050C00008780190FF20087008788DF800009DF89E
:1050D00000009DF8002000F0F000904207D0502022
:1050E00080F31188BFF34F8FBFF36F8FFEE79DF8FA
:1050F0000000204C00F0500020700720A06005E068
:105100009DF8002052008DF80020401E9DF80020E0
:105110001206F5D4A060032807D0502080F3118830
:10512000BFF34F8FBFF36F8FFEE74FF44070A06067
:10513000019808700C482030016841F4700101604A
:10514000016841F070410160FFF7FAFE00206060E5
:10515000FBF79EF80848016841F040410160FBF709
:1051600083F800201CBD000000ED00E071C20F417B
:1051700000E400E09400002034EF00E0F8B51746AA
:105180000E46050013D005FB06F04830FFF758FD2A
:1051900004000AD0002084F8460004F148023B468F
:1051A000314628460094FFF7A9FC2046F8BD502060
:1051B00080F31188BFF34F8FBFF36F8FFEE70000BE
:1051C00070B50D46040025D0FFF754FED4E90F203A
:1051D000216802FB0011A1600021A16321686160C8
:1051E0000A46D4E90F01401E00FB0121E16021467F
:1051F0004FF0FF3001F8440F487004F110008DB1FA
:10520000FFF706FE04F12400FFF702FEFFF752FE4F
:10521000012070BD502080F31188BFF34F8FBFF382
:105220006F8FFEE721690029F0D000F0D1F8002847
:10523000ECD004494FF080500860BFF34F8FBFF3AC
:105240006F8FE3E704ED00E02DE9FF5F8346DDE9C2
:105250000E87994616468A469000FFF7F1FC050036
:105260001CD05420FFF7ECFC040014D00020256370
:1052700084F85100CDE90240CDE900874B46324623
:1052800051465846FFF745FC2046FFF75FFB0120DB
:1052900004B0BDE8F09F2846FFF720FE4FF0FF3036
:1052A000F6E7F0B585B0DDE90B640A9DA6B1DCB187
:1052B000542700972663022684F85160002604AF25
:1052C000CDE90246CDE90057FFF723FC2046FFF762
:1052D0003DFB049805B0F0BD502080F31188BFF36A
:1052E0004F8FBFF36F8FFEE7502080F31188BFF31D
:1052F0004F8FBFF36F8FFEE70148C0687047000013
:10530000380000202DE9F0412F4C0026206B28B1F9
:10531000A069401CA0613046BDE8F081E5686D1CC5
:10532000E56013D1606B006838B1502080F31188BC
:10533000BFF34F8FBFF36F8FFEE7606BA16B6163AD
:10534000A063206A401C2062FFF756FCA06ADFF8C9
:105350007C80854209D3606B0068A0B1606BC06837
:10536000C7687868854211D2A0622068C06A00EBE5
:10537000800158F82100012800D90126E0690028A1
:10538000C9D00126C7E74FF0FF30EDE7381DFFF722
:1053900021FDB86A18B107F11800FFF71BFDF96A83
:1053A0000120226988401043206101EB810108EB54
:1053B0008100391DFFF752FDF86A2168C96A8842E9
:1053C000C9D30126C7E7000038000020F0060020FE
:1053D0002DE9F041C068C468ACB104F1180007467B
:1053E000FFF7F8FC154D286B0126A0B1394614488B
:1053F000FFF734FDE06A2968C96A88421CD9012098
:10540000EE61BDE8F081502080F31188BFF34F8F2B
:10541000BFF36F8FFEE7201DFFF7DCFCE16A2A690E
:1054200006FA01F01043286101EB81000449B43908
:1054300001EB8000211DDBE70020E2E738000020BF
:10544000A40700202DE9F0472C4D00242746286BA7
:1054500038B1FFF70FFD286B401E2863286B40B161
:1054600046E0502080F31188BFF34F8FBFF36F8F5A
:10547000FEE7A968224E0120D1B3A6F1B409804607
:105480003068E8B1F068C46804F11800FFF7A2FCC6
:10549000201DFFF79FFCE06A2A6908FA00F111431A
:1054A000296100EB800109EB8100211DFFF7D6FC8B
:1054B000E06A2968C96A8842E2D3C5F81C80DFE740
:1054C0000CB1FFF799FBAC6944B14646FFF71AFFF0
:1054D00000B1EE61641EF9D10020A861E86938B11D
:1054E0000849012738070860BFF34F8FBFF36F8F5C
:1054F000FFF7E0FC3846BDE8F087000038000020E8
:10550000A407002004ED00E02DE9F0410E4E054611
:1055100000244FF480584FF40057EA0941463046C2
:10552000FBF728FF012239463046FBF723FF002214
:1055300039463046FBF71EFF6806641C050EE4B2D0
:10554000082CEAD3BDE8F0810004024070B5104C8D
:1055500005460E46A078FFF7D7FF6078FFF7D4FF27
:105560000120A840C043C0B2FFF7CEFF3046FFF78E
:10557000CBFF0122074D940321462846FBF7FAFE94
:1055800021462846BDE870400022FBF7F3BE00002C
:1055900000000020000402402DE9C04130B4DFF8D3
:1055A000A0C23CEA111418BF3CEA131400F0EC80CE
:1055B00081EA03051CEA111444EAD57418BF1CEAF9
:1055C000131500F0C780A4EB05044FF0004545EA31
:1055D000C12145EAC32341EA505143EA525304F141
:1055E0007F74994204F500344FEAC0204FEAC2228A
:1055F00008BF904200F09C804FEA13650FF24016FE
:10560000765D4FEA134506FB05F7C7F1807706FB89
:1056100007F74FEAD737A7FB03687642C8F580380B
:10562000A7FB06CE38BFA8F1010807FB08E64FF03C
:10563000000EA6FB028CE6FB03CEDCF1000CCEF1E3
:10564000004E38BFAEF1010EA6FB0C584FF000071C
:105650004FF00005E6FB0E87A1FB08C6A0FB07CEB6
:1056600016EB0E0645F10005E1FB076515F1E04E6E
:105670007EBFA4F580345FEA46066D4116F18007CF
:1056800045F100054FEA17274FEA066647EA056726
:10569000A6F1DE46B6F1805F4FEA15251FD93846E0
:1056A00024F0010C05EBC471BCF1FE6F01EB0C1191
:1056B00002D8F0BCBDE8008124425CBF01F5801E29
:1056C0009EEAC47F02D4F0BCBDE80081244238D4F5
:1056D000F0BCA1F1C041BDE8004100F049B94FEA7A
:1056E000D22242EA43524FEAD323A7FB02864FEA73
:1056F000D02040EA415007FB03661EEA0E0F4FEA36
:10570000D12105FB026658BFA6EB0056B6EB00564A
:105710004FEA520E4EEAC37E18EB0E0E56EB530EB6
:10572000BDD518EB02085E417F1C55F10005B6E7B8
:105730004FF480154FF000074FF000064FF00008BF
:10574000ADE7F0BC4FF0000001F1C04101F00041B5
:10575000BDE8008111EA0C1F0CEA131500D00CE023
:1057600013EA0C1F00F025804FF00000F0BC81EA26
:10577000030101F00041BDE80081F0BCBDE800413B
:1057800081EA030100F0F4B8F0BCBDE8004170B557
:1057900000F0A0F8097EFC3E00F007B881EA0301A2
:1057A0004FF0000001F00041704781EA030100F072
:1057B000DFB8F0BCBDE800414FF000002149704760
:1057C000FFFDFBF9F7F5F4F2F0EEEDEBE9E8E6E4C6
:1057D000E3E1E0DEDDDBDAD8D7D5D4D3D1D0CFCD4D
:1057E000CCCBCAC8C7C6C5C4C2C1C0BFBEBDBCBB86
:1057F000BAB9B8B7B6B5B4B3B2B1B0AFAEADACAB81
:10580000AAA9A8A8A7A6A5A4A3A3A2A1A09F9F9E5A
:105810009D9C9C9B9A99999897979695959493930C
:10582000929191908F8F8E8E8D8C8C8B8B8A8989A3
:105830008888878786858584848383828281818026
:105840000000FF070000F87F4FEA41034FEA53537F
:10585000A3F58063D3F11E03C8BFD3F1210C0CDD87
:105860004FF0004242EAC12242EA505232FA03FCAF
:105870008CEAE17CACEBE1707047102BC4BF0020D8
:10588000704703F5787CBCF1FF3F04D06FF0004215
:1058900082EA2100704770B500F01CF8499224801C
:1058A00000207047F2E710F0004248BF4042B0FAD3
:1058B00080F310FA03F10AD0C3F11D0303F58063EE
:1058C0004FEA415002EB035202EBD12170474FF0F7
:1058D000000070470EF1020E2EF0030E5EF8046B0E
:1058E000364205D4012A43EB030515F5001F12D8F3
:1058F000012841EB010C1CF5001F0CD80ED14FEA1A
:10590000D17C15F5001F0CEB4C0C0CF1020C08BF00
:105910004CEBD37C04E04FF0080C01E04FEAD37C61
:105920000CEB4C0526FA05F606F00706B6F1040C5A
:1059300006D20EEB860CBDE870404CF0010C6047BF
:10594000DFE80CF0090B02024FF000414FF00000BD
:10595000A1F5002170BD19461046012851EB010444
:1059600018BFD4F5001484BF002001F0004170BDC1
:105970000808A0F500114FEA310170474FF0407060
:10598000E1EE100A7047C0F9A4B0999282F88090B5
:105990006C5A00087D39000800000000000000007B
:1059A000800000000000000000000000CDCC444159
:1059B00066663642CDCC9D423333BB41CDCC62428C
:1059C000000610160006101600000000000000007F
:1059D0000102030406070809000000000102030495
:1059E0003333333333331F40CDCCCCCCCCCC2440F9
:1059F0003333333333332F40CDCCCCCCCCCC3440C9
:105A00000000000000403F409A99999999D944407C
:105A10000000000000404F400000000000405F40D8
:105A20000000000000406F400000000000407F4088
:105A300030313233343536373839414243444546C4
:105A400040305800303132333435363738396162BE
:105A500063646566403078000400000800000000C0
:105A60000000000200010000100000006465666193
:105A7000756C745461736B00985A00080000002024
:105A8000A0000000D4010008385B0008A00000203E
:105A9000A0490000F0010008000000FFFFFFFFFF29
:105AA000FFFFFF00010203000000000000000000F3
:105AB00000000000000000000000000000000000E6
:105AC0000100000010000000000000000024F400AD
:105AD00000000000000000000000000000000000C6
